:1000000071C0000090C000008EC000008CC00000D5
:100010008AC0000088C0000086C0000084C00000C4
:1000200082C0000080C000007EC000007CC00000D4
:100030007AC0000078C0000076C0000074C00000E4
:1000400072C0000070C000006EC000006CC00000F4
:100050006AC0000068C0000066C0000064C0000004
:1000600062C0000060C000005EC000005CC0000014
:100070005AC0000058C0000056C0000054C0000024
:1000800052C0000050C000004EC000004CC0000034
:100090004AC0000048C0000046C0000044C0000044
:1000A00042C0000040C000003EC000003CC0000054
:1000B0003AC0000038C0000036C0000034C0000064
:1000C00032C0000030C000002EC000002CC0000074
:1000D0002AC0000028C0000026C0000024C0000084
:1000E00022C0000011241FBECFEFD1E2DEBFCDBF82
:1000F00000E00CBF12E0A0E0B2E0EAE2F3EA00E0C8
:100100000BBF02C007900D92A233B107D9F722E0CE
:10011000A2E3B2E001C01D92A534B207E1F70E944C
:10012000490F0C9493516CCF0F931F93CF93DF9390
:10013000CDB7DEB7C057D1090FB6F894DEBF0FBEFA
:10014000CDBF80E090E0A0E8BFE389839A83AB83D2
:10015000BC838E0109591F4F26E636E646E655E474
:1001600069817A818B819C810E946550DC01CB0181
:10017000F80180839183A283B383CE0189599F4F75
:1001800020E030E040E85FE3FC0160817181828122
:1001900093810E94E44F88234CF4CE0185599F4FF0
:1001A00021E030E0FC013183208369C0CE01895910
:1001B0009F4F20E03FEF4FE757E4FC0160817181E2
:1001C000828193810E94615018160CF046C020E095
:1001D00030E040E251E469817A818B819C810E9408
:1001E0006550DC01CB018E0105591F4FBC01CD01CB
:1001F0000E94E84FDC01CB01F8019183808324C089
:10020000CE0183599F4F20E731E0FC0131832083E9
:10021000CE0183599F4FFC01808191810197F1F7B5
:100220009E0123593F4FF90191838083CE01855967
:100230009F4F9E0125593F4FF90120813181215067
:100240003109FC0131832083CE0185599F4FFC0188
:1002500080819181892BA1F62CC08E0105591F4FF9
:10026000CE0189599F4FFC01608171818281938108
:100270000E94E84FDC01CB01F80191838083CE011D
:1002800081599F4F9E0125593F4FF90120813181AE
:10029000FC0131832083CE0181599F4FFC01808175
:1002A00091810197F1F79E0121593F4FF901918307
:1002B000808388E290E028E230E0F90120812E7FFF
:1002C000FC01208388E290E028E230E0F9012081FF
:1002D0002D7FFC01208388E290E020E3FC01208355
:1002E00088E290E028E230E0F90120812460FC01FE
:1002F000208380E090E0A0EAB0E48D839E83AF830A
:10030000B8878E01035A1F4F26E636E646E655E4C7
:100310006D817E818F8198850E946550DC01CB01C3
:10032000F80180839183A283B383CE01835A9F4FC8
:1003300020E030E040E85FE3FC0160817181828170
:1003400093810E94E44F88234CF4CE018F599F4F34
:1003500021E030E0FC013183208369C0CE01835A63
:100360009F4F20E03FEF4FE757E4FC016081718130
:10037000828193810E94615018160CF046C020E0E3
:1003800030E040E251E46D817E818F8198850E944A
:100390006550DC01CB018E010F591F4FBC01CD010F
:1003A0000E94E84FDC01CB01F8019183808324C0D7
:1003B000CE018D599F4F20E731E0FC01318320832E
:1003C000CE018D599F4FFC01808191810197F1F7FA
:1003D0009E012D593F4FF90191838083CE018F59A2
:1003E0009F4F9E012F593F4FF901208131812150AC
:1003F0003109FC0131832083CE018F599F4FFC01CD
:1004000080819181892BA1F62CC08E010F591F4F3D
:10041000CE01835A9F4FFC0160817181828193815B
:100420000E94E84FDC01CB01F80191838083CE016B
:100430008B599F4F9E012F593F4FF90120813181E8
:10044000FC0131832083CE018B599F4FFC018081B9
:1004500091810197F1F79E012B593F4FF90191834B
:10046000808388E290E028E230E0F90120812B7F50
:10047000FC01208380E090E0A0E8BFE389879A87B1
:10048000AB87BC878E010D5A1F4F26E636E646E63F
:1004900055E469857A858B859C850E946550DC01D1
:1004A000CB01F80180839183A283B383CE018D5A5F
:1004B0009F4F20E030E040E85FE3FC016081718104
:1004C000828193810E94E44F88234CF4CE01895AA3
:1004D0009F4F21E030E0FC013183208369C0CE01D1
:1004E0008D5A9F4F20E03FEF4FE757E4FC016081BA
:1004F0007181828193810E94615018160CF046C070
:1005000020E030E040E251E469857A858B859C8566
:100510000E946550DC01CB018E01095A1F4FBC01BE
:10052000CD010E94E84FDC01CB01F801918380836B
:1005300024C0CE01875A9F4F20E731E0FC01318370
:100540002083CE01875A9F4FFC01808191810197C2
:10055000F1F79E01275A3F4FF90191838083CE0125
:10056000895A9F4F9E01295A3F4FF90120813181BD
:1005700021503109FC0131832083CE01895A9F4FDC
:10058000FC0180819181892BA1F62CC08E01095A32
:100590001F4FCE018D5A9F4FFC0160817181828176
:1005A00093810E94E84FDC01CB01F80191838083A5
:1005B000CE01855A9F4F9E01295A3F4FF901208154
:1005C0003181FC0131832083CE01855A9F4FFC018C
:1005D000808191810197F1F79E01255A3F4FF901E2
:1005E0009183808388E290E028E230E0F901208165
:1005F0002E7FFC01208388E290E028E230E0F901C0
:1006000020812D7FFC01208388E290E020E3FC0123
:10061000208388E290E028E230E0F9012081246024
:10062000FC01208380E090E0A0EAB0E48D879E8703
:10063000AF87B88B8E01075B1F4F26E636E646E68E
:1006400055E46D857E858F8598890E946550DC0113
:10065000CB01F80180839183A283B383CE01875BB2
:100660009F4F20E030E040E85FE3FC016081718152
:10067000828193810E94E44F88234CF4CE01835BF6
:100680009F4F21E030E0FC013183208369C0CE011F
:10069000875B9F4F20E03FEF4FE757E4FC0160810D
:1006A0007181828193810E94615018160CF046C0BE
:1006B00020E030E040E251E46D857E858F859889A9
:1006C0000E946550DC01CB018E01035B1F4FBC0112
:1006D000CD010E94E84FDC01CB01F80191838083BA
:1006E00024C0CE01815B9F4F20E731E0FC013183C4
:1006F0002083CE01815B9F4FFC0180819181019716
:10070000F1F79E01215B3F4FF90191838083CE0178
:10071000835B9F4F9E01235B3F4FF9012081318115
:1007200021503109FC0131832083CE01835B9F4F2F
:10073000FC0180819181892BA1F62CC08E01035B85
:100740001F4FCE01875B9F4FFC01608171818281C9
:1007500093810E94E84FDC01CB01F80191838083F3
:10076000CE018F5A9F4F9E01235B3F4FF90120819D
:100770003181FC0131832083CE018F5A9F4FFC01D0
:10078000808191810197F1F79E012F5A3F4FF90126
:100790009183808388E290E028E230E0F9012081B3
:1007A0002B7FFC01208380E090E0A0E8BFE3898BF1
:1007B0009A8BAB8BBC8B8E01015C1F4F26E636E615
:1007C00046E655E469897A898B899C890E9465503F
:1007D000DC01CB01F80180839183A283B383CE0136
:1007E000CF9620E030E040E85FE3FC01608171815A
:1007F000828193810E94E44F88234CF4CE018D5B6B
:100800009F4F21E030E0FC013183208367C0CE019F
:10081000CF9620E03FEF4FE757E4FC016081718104
:10082000828193810E94615018160CF046C020E02E
:1008300030E040E251E469897A898B899C890E9481
:100840006550DC01CB018E010D5B1F4FBC01CD015A
:100850000E94E84FDC01CB01F8019183808324C022
:10086000CE018B5B9F4F20E731E0FC013183208379
:10087000CE018B5B9F4FFC01808191810197F1F745
:100880009E012B5B3F4FF90191838083CE018D5BED
:100890009F4F9E012D5B3F4FF901208131812150F7
:1008A0003109FC0131832083CE018D5B9F4FFC0118
:1008B00080819181892BA1F62BC08E010D5B1F4F8A
:1008C000CE01CF96FC0160817181828193810E946B
:1008D000E84FDC01CB01F80191838083CE01895B75
:1008E0009F4F9E012D5B3F4FF90120813181FC011B
:1008F00031832083CE01895B9F4FFC0180819181F0
:100900000197F1F79E01295B3F4FF90191838083A5
:1009100088E290E028E230E0F90120812E7FFC019E
:10092000208388E290E028E230E0F90120812D7FE9
:10093000FC01208388E290E020E3FC01208388E230
:1009400090E028E230E0F90120812460FC0120835E
:1009500080E090E0A0EAB0E48D8B9E8BAF8BB88FE7
:1009600026E636E646E655E46D897E898F89988DC0
:100970000E946550DC01CB018DAB9EABAFABB8AF35
:1009800020E030E040E85FE36DA97EA98FA998AD33
:100990000E94E44F88232CF481E090E09AAF89AF65
:1009A0003FC020E03FEF4FE757E46DA97EA98FA934
:1009B00098AD0E94615018164CF520E030E040E2FE
:1009C00051E46D897E898F89988D0E946550DC0184
:1009D000CB01BC01CD010E94E84FDC01CB019AAFF5
:1009E00089AF0FC080E791E09CAF8BAF8BAD9CAD22
:1009F0000197F1F79CAF8BAF89AD9AAD01979AAF94
:100A000089AF89AD9AAD892B69F714C06DA97EA90C
:100A10008FA998AD0E94E84FDC01CB019AAF89AF56
:100A200089AD9AAD9EAF8DAF8DAD9EAD0197F1F7BB
:100A30009EAF8DAF88E290E028E230E0F90120819E
:100A40002B7FFC01208380E090E0A0E8BFE3898F4A
:100A50009A8FAB8FBC8F26E636E646E655E4698D65
:100A60007A8D8B8D9C8D0E946550DC01CB018BA70C
:100A70009CA7ADA7BEA720E030E040E85FE36BA5F0
:100A80007CA58DA59EA50E94E44F88232CF481E0CF
:100A900090E098AB8FA73FC020E03FEF4FE757E4CF
:100AA0006BA57CA58DA59EA50E94615018164CF5DE
:100AB00020E030E040E251E4698D7A8D8B8D9C8D91
:100AC0000E946550DC01CB01BC01CD010E94E84FC2
:100AD000DC01CB0198AB8FA70FC080E791E09AAB08
:100AE00089AB89A99AA90197F1F79AAB89AB8FA530
:100AF00098A9019798AB8FA78FA598A9892B69F71B
:100B000014C06BA57CA58DA59EA50E94E84FDC01B5
:100B1000CB0198AB8FA78FA598A99CAB8BAB8BA96A
:100B20009CA90197F1F79CAB8BAB88E290E028E29F
:100B300030E0F90120812E7FFC01208388E290E0E3
:100B400028E230E0F90120812D7FFC01208388E23A
:100B500090E020E2FC01208388E290E028E230E08F
:100B6000F90120812460FC01208380E090E0A0EA6C
:100B7000B0E48D8F9E8FAF8FB8A326E636E646E6AB
:100B800055E46D8D7E8D8F8D98A10E946550DC019E
:100B9000CB0189A39AA3ABA3BCA320E030E040E83B
:100BA0005FE369A17AA18BA19CA10E94E44F8823F5
:100BB0002CF481E090E09EA38DA33FC020E03FEFA6
:100BC0004FE757E469A17AA18BA19CA10E946150D3
:100BD00018164CF520E030E040E251E46D8D7E8D3A
:100BE0008F8D98A10E946550DC01CB01BC01CD0125
:100BF0000E94E84FDC01CB019EA38DA30FC080E7CC
:100C000091E098A78FA38FA198A50197F1F798A7D6
:100C10008FA38DA19EA101979EA38DA38DA19EA1BF
:100C2000892B69F714C069A17AA18BA19CA10E94AC
:100C3000E84FDC01CB019EA38DA38DA19EA19AA7B5
:100C400089A789A59AA50197F1F79AA789A788E2AC
:100C500090E028E230E0F90120812B7FFC01208325
:100C60000000C059DF4F0FB6F894DEBF0FBECDBFF6
:100C7000DF91CF911F910F910895CF93DF93CDB75F
:100C8000DEB72E970FB6F894DEBF0FBECDBF80E063
:100C900090E0A0E8BFE389839A83AB83BC8326E618
:100CA00036E646E655E469817A818B819C810E9413
:100CB0006550DC01CB018D839E83AF83B88720E034
:100CC00030E040E85FE36D817E818F8198850E94EE
:100CD000E44F88232CF481E090E09A8789873FC015
:100CE00020E03FEF4FE757E46D817E818F8198854B
:100CF0000E94615018164CF520E030E040E251E4CB
:100D000069817A818B819C810E946550DC01CB01D5
:100D1000BC01CD010E94E84FDC01CB019A87898795
:100D20000FC080E791E09C878B878B859C8501971E
:100D3000F1F79C878B8789859A8501979A878987A0
:100D400089859A85892B69F714C06D817E818F8191
:100D500098850E94E84FDC01CB019A8789878985B5
:100D60009A859E878D878D859E850197F1F79E8751
:100D70008D8788E212D081E010D086E00ED08EE020
:100D80000CD080E80AD000002E960FB6F894DEBF93
:100D90000FBECDBFDF91CF910895CF93DF93CDB735
:100DA000DEB76E970FB6F894DEBF0FBECDBF8E8F45
:100DB0008E8D89838981807F898388E290E028E213
:100DC00030E0F90120812F70FC01208388E290E05F
:100DD00028E230E0F90130812981232BFC012083B6
:100DE00088E290E028E230E0F90120812E7FFC01CA
:100DF000208388E290E028E230E0F90120812D7F15
:100E0000FC01208388E290E028E230E0F9012081B3
:100E10002460FC01208380E090E0A0EAB0E48A83B3
:100E20009B83AC83BD8326E636E646E655E46A81BD
:100E30007B818C819D810E946550DC01CB018C8B74
:100E40009D8BAE8BBF8B20E030E040E85FE36C8988
:100E50007D898E899F890E94E44F88232CF481E04C
:100E600090E0998F888F3FC020E03FEF4FE757E435
:100E70006C897D898E899F890E94615018164CF576
:100E800020E030E040E251E46A817B818C819D81E9
:100E90000E946550DC01CB01BC01CD010E94E84FEE
:100EA000DC01CB01998F888F0FC080E791E09B8F89
:100EB0008A8F8A8D9B8D0197F1F79B8F8A8F888D02
:100EC000998D0197998F888F888D998D892B69F7D6
:100ED00014C06C897D898E899F890E94E84FDC014E
:100EE000CB01998F888F888D998D9D8F8C8F8C8D5C
:100EF0009D8D0197F1F79D8F8C8F88E290E028E21D
:100F000030E0F90120812B7FFC0120838E8D8F70D2
:100F10008E8F8E8D8295807F8E8F88E290E028E282
:100F200030E0F90120812F70FC01208388E290E0FD
:100F300028E230E0F90130812E8D232BFC01208343
:100F400088E290E028E230E0F90120812E7FFC0168
:100F5000208388E290E028E230E0F90120812D7FB3
:100F6000FC01208388E290E028E230E0F901208152
:100F70002460FC01208380E090E0A0EAB0E48E834E
:100F80009F83A887B98726E636E646E655E46E8154
:100F90007F81888599850E946550DC01CB018A8715
:100FA0009B87AC87BD8720E030E040E85FE36A853F
:100FB0007B858C859D850E94E44F88232CF481E0FD
:100FC00090E09F878E873FC020E03FEF4FE757E4D8
:100FD0006A857B858C859D850E94615018164CF52D
:100FE00020E030E040E251E46E817F818885998580
:100FF0000E946550DC01CB01BC01CD010E94E84F8D
:10100000DC01CB019F878E870FC080E791E0998B31
:10101000888B888999890197F1F7998B888B8E85C0
:101020009F8501979F878E878E859F85892B69F77E
:1010300014C06A857B858C859D850E94E84FDC0104
:10104000CB019F878E878E859F859B8B8A8B8A8914
:101050009B890197F1F79B8B8A8B88E290E028E2CD
:1010600030E0F90120812B7FFC01208300006E9687
:101070000FB6F894DEBF0FBECDBFDF91CF910895BC
:10108000CF93DF93CDB7DEB76E970FB6F894DEBF80
:101090000FBECDBF8E8F8E8D89838981807F89839E
:1010A00088E290E028E230E0F90120812F70FC0115
:1010B000208388E290E028E230E0F9013081298144
:1010C000232BFC01208388E290E028E230E0F90144
:1010D00020812160FC01208388E290E028E230E05A
:1010E000F90120812D7FFC01208388E290E028E235
:1010F00030E0F90120812460FC01208380E090E051
:10110000A0EAB0E48A839B83AC83BD8326E636E6FF
:1011100046E655E46A817B818C819D810E94655001
:10112000DC01CB018C8B9D8BAE8BBF8B20E030E044
:1011300040E85FE36C897D898E899F890E94E44F36
:1011400088232CF481E090E0998F888F3FC020E0C5
:101150003FEF4FE757E46C897D898E899F890E9414
:10116000615018164CF520E030E040E251E46A810D
:101170007B818C819D810E946550DC01CB01BC018B
:10118000CD010E94E84FDC01CB01998F888F0FC001
:1011900080E791E09B8F8A8F8A8D9B8D0197F1F775
:1011A0009B8F8A8F888D998D0197998F888F888DD5
:1011B000998D892B69F714C06C897D898E899F89E7
:1011C0000E94E84FDC01CB01998F888F888D998D23
:1011D0009D8F8C8F8C8D9D8D0197F1F79D8F8C8FBE
:1011E00088E290E028E230E0F90120812B7FFC01C9
:1011F00020838E8D8F708E8F8E8D8295807F8E8FC7
:1012000088E290E028E230E0F90120812F70FC01B3
:10121000208388E290E028E230E0F90130812E8DD1
:10122000232BFC01208388E290E028E230E0F901E2
:1012300020812160FC01208388E290E028E230E0F8
:10124000F90120812D7FFC01208388E290E028E2D3
:1012500030E0F90120812460FC01208380E090E0EF
:10126000A0EAB0E48E839F83A887B98726E636E696
:1012700046E655E46E817F81888599850E94655098
:10128000DC01CB018A879B87AC87BD8720E030E0FB
:1012900040E85FE36A857B858C859D850E94E44FED
:1012A00088232CF481E090E09F878E873FC020E068
:1012B0003FEF4FE757E46A857B858C859D850E94CB
:1012C000615018164CF520E030E040E251E46E81A8
:1012D0007F81888599850E946550DC01CB01BC0126
:1012E000CD010E94E84FDC01CB019F878E870FC0A4
:1012F00080E791E0998B888B888999890197F1F72C
:10130000998B888B8E859F8501979F878E878E8589
:101310009F85892B69F714C06A857B858C859D859F
:101320000E94E84FDC01CB019F878E878E859F85C9
:101330009B8B8A8B8A899B890197F1F79B8B8A8B80
:1013400088E290E028E230E0F90120812B7FFC0167
:10135000208300006E960FB6F894DEBF0FBECDBF9F
:10136000DF91CF910895CF93DF93CDB7DEB780E8BB
:1013700014DD0000DF91CF910895CF93DF93CDB7B7
:10138000DEB781E00ADD0000DF91CF910895CF93B1
:10139000DF931F921F92CDB7DEB789836A8389815D
:1013A000882F90E08230910581F0833091051CF404
:1013B000019739F016C08330910559F0049769F010
:1013C00010C08A818158E9DC0CC08A818154E5DC37
:1013D00008C08A818D56E1DC04C08A818D52DDDC33
:1013E000000000000F900F90DF91CF910895CF93F0
:1013F000DF93CDB7DEB727970FB6F894DEBF0FBEE9
:10140000CDBF8A836B835D834C833F832E83198298
:101410008A81882319F08B81882311F4A4DF03C00B
:101420006B818A81B4DF8E819F81059719F0898154
:101430008130F9F48C819D81929582958F708927F6
:101440009F7089279C01A7E4B3E00E94C14F969545
:1014500087959695879596958795C0969093370230
:1014600080933602809136029091370209DE81E046
:1014700089838E819F81049721F08981813009F0D1
:101480003FC08C819D819695879596958795969579
:1014900087959C01A5ECB0E20E94C14F9295829580
:1014A0008F7089279F708927909339028093380223
:1014B00040913802509139029A01ADECBCEC0E9487
:1014C000C14F969587959695879596958795880FA0
:1014D000991F9C01220F331F220F331F820F931F6E
:1014E0009A01281B390BC901C0969093440280933E
:1014F00043028091430290914402C2DD81E08983DE
:101500008E819F81039719F089818130C9F58C8183
:101510009D8196958795969587959C01ABE7B4E15B
:101520000E94C14F96958795909339028093380217
:1015300040913802509139029A01ADECBCEC0E9406
:10154000C14F969587959695879596958795880F1F
:10155000991F9C01220F331F220F331F820F931FED
:101560009A01281B390BC901C096909340028093C1
:101570003F0280913F029091400282DD81E08983A9
:101580008E819F81029719F089818130C9F58C8104
:101590009D819C01ADECBCEC0E94C14F9695879556
:1015A0009695879596958795909339028093380202
:1015B00040913802509139029A01ADECBCEC0E9486
:1015C000C14F969587959695879596958795880F9F
:1015D000991F9C01220F331F220F331F820F931F6D
:1015E0009A01281B390BC901C09690933E02809343
:1015F0003D0280913D0290913E0242DD81E089836F
:101600008E819F81019719F08981813021F54C816C
:101610005D819A01ADECBCEC0E94C14F9695879517
:101620009695879596958795880F991F9C01220F0F
:10163000331F220F331F820F931F9A01281B390B70
:10164000C901C09690934202809341028091410269
:101650009091420215DD8E819F81069714F085E4FA
:101660000FDD000027960FB6F894DEBF0FBECDBF8A
:10167000DF91CF910895CF93DF9300D01F92CDB724
:10168000DEB789836A835C834B8316C08B819C8120
:10169000FC018081482F50E08A81282F30E0898129
:1016A000882F90E0B90116D08B819C8101969C8394
:1016B0008B838A818F5F8A838B819C81FC018081EF
:1016C000882321F700000F900F900F900F90DF916B
:1016D000CF910895CF93DF93CDB7DEB7A0970FB624
:1016E000F894DEBF0FBECDBF8E8F6F8F48A36F8D76
:1016F0008E8D4DDE88A189838981807F898388E2F0
:1017000090E028E230E0F90120812F70FC01208375
:1017100088E290E028E230E0F90130812981232B32
:10172000FC01208388E290E028E230E0F90120818A
:101730002160FC01208388E290E028E230E0F9019A
:1017400020812D7FFC01208388E290E028E230E0B8
:10175000F90120812460FC01208380E090E0A0EA70
:10176000B0E48A839B83AC83BD8326E636E646E6F7
:1017700055E46A817B818C819D810E946550DC01EA
:10178000CB018C8B9D8BAE8BBF8B20E030E040E893
:101790005FE36C897D898E899F890E94E44F88234D
:1017A0002CF481E090E0998F888F3FC020E03FEFDC
:1017B0004FE757E46C897D898E899F890E9461502B
:1017C00018164CF520E030E040E251E46A817B815C
:1017D0008C819D810E946550DC01CB01BC01CD0153
:1017E0000E94E84FDC01CB01998F888F0FC080E702
:1017F00091E09B8F8A8F8A8D9B8D0197F1F79B8F4C
:101800008A8F888D998D0197998F888F888D998D72
:10181000892B69F714C06C897D898E899F890E9404
:10182000E84FDC01CB01998F888F888D998D9D8F32
:101830008C8F8C8D9D8D0197F1F79D8F8C8F88E219
:1018400090E028E230E0F90120812B7FFC01208329
:1018500088A18F7088A388A18295807F88A388E261
:1018600090E028E230E0F90120812F70FC01208314
:1018700088E290E028E230E0F901308128A1232BB2
:10188000FC01208388E290E028E230E0F901208129
:101890002160FC01208388E290E028E230E0F90139
:1018A00020812D7FFC01208388E290E028E230E057
:1018B000F90120812460FC01208380E090E0A0EA0F
:1018C000B0E48E839F83A887B98726E636E646E68E
:1018D00055E46E817F81888599850E946550DC0181
:1018E000CB018A879B87AC87BD8720E030E040E84A
:1018F0005FE36A857B858C859D850E94E44F882304
:101900002CF481E090E09F878E873FC020E03FEF7E
:101910004FE757E46A857B858C859D850E946150E1
:1019200018164CF520E030E040E251E46E817F81F2
:10193000888599850E946550DC01CB01BC01CD01F1
:101940000E94E84FDC01CB019F878E870FC080E7A4
:1019500091E0998B888B888999890197F1F7998B08
:10196000888B8E859F8501979F878E878E859F8523
:10197000892B69F714C06A857B858C859D850E94BB
:10198000E84FDC01CB019F878E878E859F859B8BDF
:101990008A8B8A899B890197F1F79B8B8A8B88E2D6
:1019A00090E028E230E0F90120812B7FFC012083C8
:1019B0000000A0960FB6F894DEBF0FBECDBFDF913A
:1019C000CF910895CF93DF93CDB7DEB78CE290E04F
:1019D000FC018081882314F081E001C080E0DF9168
:1019E000CF910895CF93DF93CDB7DEB787E290E034
:1019F00027E230E0F90120812860FC01208388E2A1
:101A000090E028E230E0F9012081277FFC0120836B
:101A10000000DF91CF910895CF93DF93CDB7DEB76C
:101A200088E290E028E230E0F90120812860FC01A2
:101A300020830000DF91CF910895CF93DF93CDB73E
:101A4000DEB788E290E028E230E0F9012081277FCC
:101A5000FC0120830000DF91CF910895CF93DF93A5
:101A6000CDB7DEB787E290E027E230E0F9012081D0
:101A7000276FFC01208388E290E028E230E0F90142
:101A800020812078FC0120830000DF91CF91089510
:101A9000CF93DF93CDB7DEB780E390E0FC011082F7
:101AA00081E390E0FC01108287E091E0FC0110826C
:101AB00088E091E0FC0110820000DF91CF91089551
:101AC000CF93DF93CDB7DEB781E290E021E230E043
:101AD000F90120812F60FC01208382E290E022E264
:101AE00030E0F9012081207FFC0120838AE091E031
:101AF0002AE031E0F90120812861FC0120838BE09C
:101B000091E02BE031E0F90120812861FC01208384
:101B10000000DF91CF910895CF93DF93CDB7DEB76B
:101B20009DDFB6DFCDDF0000DF91CF910895CF9329
:101B3000DF93CDB7DEB781E291E0FC01108285E250
:101B400091E02FEFFC01208384E291E021E0FC0191
:101B5000208389E291E0FC01108288E291E02FEF7E
:101B6000FC0120838BE291E0FC0110828AE291E08B
:101B70002FEFFC0120838DE291E0FC0110828CE2CA
:101B800091E02FEFFC01208380E291E029EAFC0143
:101B9000208381E291E02BE0FC0120830000DF91B3
:101BA000CF910895CF93DF93CDB7DEB78AE790E06A
:101BB000FC0110828BE790E0FC0110828CE790E042
:101BC00020E2FC01208380E590E020E8FC012083F6
:101BD0008AE790E026E8FC0120830000DF91CF91A6
:101BE0000895CF93DF931F921F92CDB7DEB78A83FC
:101BF0008A81883028F08BE790E028E0FC01208380
:101C00008A8187708A838CE790E02A812062FC01B8
:101C100020838AE790E02AE730E0F9012081206400
:101C2000FC01208300008AE790E0FC018081882F7E
:101C300090E080719927892BB1F389E790E0FC014E
:101C4000808189838AE790E02AE730E0F9012081EA
:101C50002061FC0120838BE790E0FC0110828981E8
:101C60000F900F90DF91CF910895CF93DF9300D025
:101C7000CDB7DEB789836A834B838B81B2DF8093D4
:101C80003A0280913A02882F90E023E030E0AC01E4
:101C90006A818981ACDB00000F900F900F90DF917B
:101CA000CF910895CF93DF931F921F92CDB7DEB7E8
:101CB00089836A8388E291E02981FC0120838AE29A
:101CC00091E02A81FC01208300000F900F90DF91AA
:101CD000CF910895CF93DF931F921F92CDB7DEB7B8
:101CE0008A8319828A818F708A8382E290E0FC0164
:101CF000808189838981807F898399818A81892BE9
:101D0000898382E290E02981FC01208300000F900A
:101D10000F90DF91CF910895CF93DF93CDB7DEB7CA
:101D200086E0D8DF0000DF91CF910895CF93DF9355
:101D3000CDB7DEB785E0CEDF0000DF91CF9108950B
:101D4000CF93DF93CDB7DEB78AE0C4DF0000DF9129
:101D5000CF910895CF93DF93CDB7DEB780E0BADFA0
:101D60000000DF91CF910895CF93DF93CDB7DEB719
:101D7000F894D2DE17DFDBDE78940000DF91CF919C
:101D80000895CF93DF931F921F92CDB7DEB71A82CB
:101D900019820E94375126E030E0B9010E94AE4F0F
:101DA00001969A83898389819A810F900F90DF91A0
:101DB000CF910895CF93DF93CDB7DEB744E052E0E3
:101DC00061E081E058DC42E152E061E082E053DC16
:101DD0000000DF91CF910895CF93DF93CDB7DEB7A9
:101DE00044E252E061E082E046DC0000DF91CF9106
:101DF0000895CF93DF93CDB7DEB784E091E0FC0187
:101E0000808184E091E02FEFFC0120830000DF91CE
:101E1000CF910895CF93DF931F92CDB7DEB789831B
:101E200085E091E025E031E0F9012081622F2981F0
:101E3000422F50E021E030E002C0220F331F4A95CC
:101E4000E2F720952623FC01208300000F90DF910C
:101E5000CF910895CF93DF931F92CDB7DEB78983DB
:101E600085E091E025E031E0F9012081622F2981B0
:101E7000422F50E021E030E002C0220F331F4A958C
:101E8000E2F7262BFC01208300000F90DF91CF9119
:101E900008950F931F93CF93DF93CDB7DEB7C0554F
:101EA000D4400FB6F894DEBF0FBECDBF1A821982A0
:101EB0001C821B8259DF0E9494000E943D0688E02C
:101EC00090E00E943A514BC083E08BDE8093330256
:101ED00082E087DE8093340281E083DE80933502E6
:101EE0001092320243E061E081E0BFDE42E065E053
:101EF00081E0BBDE41E069E081E0B7DE63DD88239D
:101F000069F1CE01815C9E4FFC01118210828E012D
:101F1000015C1E4F36DFF80191838083CE01815C26
:101F20009E4F29813A81FC0180819181820F931F0C
:101F30009A838983CE01815C9E4FFC0180819181CF
:101F400022E030E0AC0164E082E051DA89819A81DC
:101F500022E030E0AC0167E082E049DAFBDE898113
:101F60009A81892B09F4B0CF0C94A64F83E039DE17
:101F70008093330282E035DE8093340281E031DEEB
:101F8000809335021092320243E061E081E06DDE21
:101F900042E065E081E069DE41E069E081E065DE24
:101FA00011DD882351F11A861986EBDE9A8789871D
:101FB00029813A8189859A85820F931F9A83898323
:101FC00089859A8522E030E0AC0164E082E00FDA96
:101FD00089819A8122E030E0AC0167E082E007DA93
:101FE0000CC08AE190E09A83898389819A8122E0FA
:101FF00030E0AC0167E082E0FAD989819A814B97A1
:1020000084F7D9C509DD80E090E0A8ECB2E48F87C1
:10201000988BA98BBA8B8E0105571E4F26E636E6A4
:1020200046E655E46F85788989899A890E946550CA
:10203000DC01CB01F80180839183A283B383CE01BD
:1020400085579E4F20E030E040E85FE3FC0160816F
:102050007181828193810E94E44F88234CF4CE01E8
:1020600081579E4F21E030E0FC013183208369C01D
:10207000CE0185579E4F20E03FEF4FE757E4FC012C
:1020800060817181828193810E94615018160CF0E9
:1020900046C020E030E040E251E46F8578898989CC
:1020A0009A890E946550DC01CB018E0101571E4FB9
:1020B000BC01CD010E94E84FDC01CB01F801918306
:1020C000808324C0CE018F569E4F20E731E0FC0173
:1020D00031832083CE018F569E4FFC0180819181F8
:1020E0000197F1F79E012F563E4FF90191838083AE
:1020F000CE0181579E4F9E0121573E4FF90120810D
:10210000318121503109FC0131832083CE01815777
:102110009E4FFC0180819181892BA1F62CC08E01FC
:1021200001571E4FCE0185579E4FFC016081718182
:10213000828193810E94E84FDC01CB01F8019183F9
:102140008083CE018D569E4F9E0121573E4FF9014F
:1021500020813181FC0131832083CE018D569E4F39
:10216000FC01808191810197F1F79E012D563E4F30
:10217000F9019183808361DC80E090E0A8E4B2E41F
:102180008B8B9C8BAD8BBE8B8E010F571E4F26E623
:1021900036E646E655E46B897C898D899E890E94E6
:1021A0006550DC01CB01F80180839183A283B38366
:1021B000CE018F579E4F20E030E040E85FE3FC0106
:1021C00060817181828193810E94E44F88234CF465
:1021D000CE018B579E4F21E030E0FC0131832083FC
:1021E00069C0CE018F579E4F20E03FEF4FE757E485
:1021F000FC0160817181828193810E946150181677
:102200000CF046C020E030E040E251E46B897C896C
:102210008D899E890E946550DC01CB018E010B5790
:102220001E4FBC01CD010E94E84FDC01CB01F8013B
:102230009183808324C0CE0189579E4F20E731E0EF
:10224000FC0131832083CE0189579E4FFC018081A0
:1022500091810197F1F79E0129573E4FF901918332
:102260008083CE018B579E4F9E012B573E4FF90125
:102270002081318121503109FC0131832083CE013D
:102280008B579E4FFC0180819181892BA1F62CC038
:102290008E010B571E4FCE018F579E4FFC01608160
:1022A0007181828193810E94E84FDC01CB01F801AA
:1022B00091838083CE0187579E4F9E012B573E4FBF
:1022C000F90120813181FC0131832083CE018757C0
:1022D0009E4FFC01808191810197F1F79E01275764
:1022E0003E4FF9019183808397DB80E090E0A8EC7A
:1022F000B2E48F8B988FA98FBA8F8E0109581E4F29
:1023000026E636E646E655E46F89788D898D9A8D06
:102310000E946550DC01CB01F80180839183A28388
:10232000B383CE0189589E4F20E030E040E85FE360
:10233000FC0160817181828193810E94E44F882336
:102340004CF4CE0185589E4F21E030E0FC013183F2
:10235000208369C0CE0189589E4F20E03FEF4FE7B0
:1023600057E4FC0160817181828193810E946150F8
:1023700018160CF046C020E030E040E251E46F89CE
:10238000788D898D9A8D0E946550DC01CB018E017C
:1023900005581E4FBC01CD010E94E84FDC01CB0166
:1023A000F8019183808324C0CE0183589E4F20E79B
:1023B00031E0FC0131832083CE0183589E4FFC0124
:1023C000808191810197F1F79E0123583E4FF901D9
:1023D00091838083CE0185589E4F9E0125583E4FA4
:1023E000F9012081318121503109FC0131832083A1
:1023F000CE0185589E4FFC0180819181892BA1F6E9
:102400002CC08E0105581E4FCE0189589E4FFC01ED
:1024100060817181828193810E94E84FDC01CB0150
:10242000F80191838083CE0181589E4F9E012558EB
:102430003E4FF90120813181FC0131832083CE019F
:1024400081589E4FFC01808191810197F1F79E0197
:1024500021583E4FF90191838083EFDA80E090E0CC
:10246000A8E4B2E48B8F9C8FAD8FBE8F8E01035991
:102470001E4F26E636E646E655E46B8D7C8D8D8D47
:102480009E8D0E946550DC01CB01F8018083918311
:10249000A283B383CE0183599E4F20E030E040E811
:1024A0005FE3FC0160817181828193810E94E44F2E
:1024B00088234CF4CE018F589E4F21E030E0FC0180
:1024C0003183208369C0CE0183599E4F20E03FEFC6
:1024D0004FE757E4FC0160817181828193810E9402
:1024E000615018160CF046C020E030E040E251E4A4
:1024F0006B8D7C8D8D8D9E8D0E946550DC01CB0196
:102500008E010F581E4FBC01CD010E94E84FDC0127
:10251000CB01F8019183808324C0CE018D589E4F5A
:1025200020E731E0FC0131832083CE018D589E4F9E
:10253000FC01808191810197F1F79E012D583E4F5A
:10254000F90191838083CE018F589E4F9E012F58B1
:102550003E4FF9012081318121503109FC01318345
:102560002083CE018F589E4FFC0180819181892B61
:10257000A1F62CC08E010F581E4FCE0183599E4FDD
:10258000FC0160817181828193810E94E84FDC01AE
:10259000CB01F80191838083CE018B589E4F9E0121
:1025A0002F583E4FF90120813181FC013183208376
:1025B000CE018B589E4FFC01808191810197F1F7EC
:1025C0009E012B583E4FF9019183808325DA80E0EC
:1025D00090E0A8ECB2E48F8F98A3A9A3BAA38E01D0
:1025E0000D591E4F26E636E646E655E46F8D78A176
:1025F00089A19AA10E946550DC01CB01F80180837A
:102600009183A283B383CE018D599E4F20E030E0A9
:1026100040E85FE3FC0160817181828193810E94C7
:10262000E44F88234CF4CE0189599E4F21E030E0DD
:10263000FC013183208369C0CE018D599E4F20E07B
:102640003FEF4FE757E4FC01608171818281938104
:102650000E94615018160CF046C020E030E040E2C5
:1026600051E46F8D78A189A19AA10E946550DC0187
:10267000CB018E0109591E4FBC01CD010E94E84FCC
:10268000DC01CB01F8019183808324C0CE018759FE
:102690009E4F20E731E0FC0131832083CE01875932
:1026A0009E4FFC01808191810197F1F79E0127598E
:1026B0003E4FF90191838083CE0189599E4F9E013F
:1026C00029593E4FF9012081318121503109FC0106
:1026D00031832083CE0189599E4FFC0180819181F5
:1026E000892BA1F62CC08E0109591E4FCE018D59A0
:1026F0009E4FFC0160817181828193810E94E84F2D
:10270000DC01CB01F80191838083CE0185599E4F76
:102710009E0129593E4FF90120813181FC0131830D
:102720002083CE0185599E4FFC01808191810197C4
:10273000F1F79E0125593E4FF901918380837DD9A0
:1027400080E090E0A8E4B2E48BA39CA3ADA3BEA379
:102750008E01075A1E4F26E636E646E655E46BA183
:102760007CA18DA19EA10E946550DC01CB01F801E6
:1027700080839183A283B383CE01875A9E4F20E04A
:1027800030E040E85FE3FC016081718182819381E8
:102790000E94E44F88234CF4CE01835A9E4F21E0DF
:1027A00030E0FC013183208369C0CE01875A9E4FFF
:1027B00020E03FEF4FE757E4FC01608171818281A7
:1027C00093810E94615018160CF046C020E030E062
:1027D00040E251E46BA17CA18DA19EA10E946550B5
:1027E000DC01CB018E01035A1E4FBC01CD010E94BA
:1027F000E84FDC01CB01F8019183808324C0CE0136
:10280000815A9E4F20E731E0FC0131832083CE01C5
:10281000815A9E4FFC01808191810197F1F79E01C1
:10282000215A3E4FF90191838083CE01835A9E4FF6
:102830009E01235A3E4FF9012081318121503109F7
:10284000FC0131832083CE01835A9E4FFC0180819D
:102850009181892BA1F62CC08E01035A1E4FCE0107
:10286000875A9E4FFC0160817181828193810E9411
:10287000E84FDC01CB01F80191838083CE018F59B1
:102880009E4F9E01235A3E4FF90120813181FC0168
:1028900031832083CE018F599E4FFC01808191812D
:1028A0000197F1F79E012F593E4FF90191838083E3
:1028B00033DA80E090E0A8ECB3E48FA398A7A9A74F
:1028C000BAA78E01015B1E4F26E636E646E655E4C2
:1028D0006FA178A589A59AA50E946550DC01CB015E
:1028E000F80180839183A283B383CE01815B9E4FE5
:1028F00020E030E040E85FE3FC016081718182818B
:1029000093810E94E44F88234CF4CE018D5A9E4F50
:1029100021E030E0FC013183208369C0CE01815B7E
:102920009E4F20E03FEF4FE757E4FC01608171814B
:10293000828193810E94615018160CF046C020E0FD
:1029400030E040E251E46FA178A589A59AA50E94E4
:102950006550DC01CB018E010D5A1E4FBC01CD012B
:102960000E94E84FDC01CB01F8019183808324C0F1
:10297000CE018B5A9E4F20E731E0FC01318320834A
:10298000CE018B5A9E4FFC01808191810197F1F716
:102990009E012B5A3E4FF90191838083CE018D5ABF
:1029A0009E4F9E012D5A3E4FF901208131812150C9
:1029B0003109FC0131832083CE018D5A9E4FFC01E9
:1029C00080819181892BA1F62CC08E010D5A1E4F5A
:1029D000CE01815B9E4FFC01608171818281938178
:1029E0000E94E84FDC01CB01F80191838083CE0186
:1029F000895A9E4F9E012D5A3E4FF9012081318107
:102A0000FC0131832083CE01895A9E4FFC018081D5
:102A100091810197F1F79E01295A3E4FF901918367
:102A2000808384D99E012F5B3E4F80E090E0A1E639
:102A3000B4E4F90180839183A283B3838E010B5B9D
:102A40001E4FCE018F5B9E4F26E636E646E655E4E6
:102A5000FC0160817181828193810E946550DC015B
:102A6000CB01F80180839183A283B383CE018B5B7A
:102A70009E4F20E030E040E85FE3FC01608171811F
:102A8000828193810E94E44F88234CF4CE01875BBE
:102A90009E4F21E030E0FC01318320836DC0CE01E8
:102AA0008B5B9E4F20E03FEF4FE757E4FC016081D6
:102AB0007181828193810E94615018160CF04AC086
:102AC000CE018F5B9E4F20E030E040E251E4FC01FC
:102AD00060817181828193810E946550DC01CB010C
:102AE0008E01075B1E4FBC01CD010E94E84FDC0147
:102AF000CB01F8019183808324C0CE01855B9E4F7A
:102B000020E731E0FC0131832083CE01855B9E4FBD
:102B1000FC01808191810197F1F79E01255B3E4F79
:102B2000F90191838083CE01875B9E4F9E01275BD5
:102B30003E4FF9012081318121503109FC0131835F
:102B40002083CE01875B9E4FFC0180819181892B80
:102B5000A1F62CC08E01075B1E4FCE018B5B9E4FF2
:102B6000FC0160817181828193810E94E84FDC01C8
:102B7000CB01F80191838083CE01835B9E4F9E0140
:102B8000275B3E4FF90120813181FC013183208395
:102B9000CE01835B9E4FFC01808191810197F1F70B
:102BA0009E01235B3E4FF90191838083D3D884E655
:102BB00090E09A83898389819A81039709F032C4CE
:102BC0008B819C81039709F41DCA2CC483E009D82A
:102BD0008093330282E005D88093340281E001D8EB
:102BE000809335021092320243E061E081E03DD8EB
:102BF00042E065E081E039D841E069E081E035D824
:102C000089819A8122E030E0AC0167E082E00E9495
:102C1000F70980913402883038F081E080933202E5
:102C20007BD860EA80EA3ED880913302873058F43E
:102C300080913202882339F481E0809332026CD88B
:102C400062E382E82FD880913502883058F4809171
:102C50003202882339F481E0809332025DD862E841
:102C600082E320D880913402873008F0C6C080917A
:102C70003302873008F0C1C080913502873008F0F8
:102C8000BCC04AD860EA80EA0DD880E090E0AAEFA4
:102C9000B3E48B879C87AD87BE878E010B561E4F92
:102CA00026E636E646E655E46B857C858D859E8571
:102CB0000E946550DC01CB01F80180839183A283DF
:102CC000B383CE018B569E4F20E030E040E85FE3B7
:102CD000FC0160817181828193810E94E44F88238D
:102CE0004CF4CE0187569E4F21E030E0FC01318349
:102CF000208369C0CE018B569E4F20E03FEF4FE707
:102D000057E4FC0160817181828193810E9461504E
:102D100018160CF046C020E030E040E251E46B852C
:102D20007C858D859E850E946550DC01CB018E01DE
:102D300007561E4FBC01CD010E94E84FDC01CB01BC
:102D4000F8019183808324C0CE0185569E4F20E7F1
:102D500031E0FC0131832083CE0185569E4FFC017A
:102D6000808191810197F1F79E0125563E4FF9012F
:102D700091838083CE0187569E4F9E0127563E4FFA
:102D8000F9012081318121503109FC0131832083F7
:102D9000CE0187569E4FFC0180819181892BA1F63F
:102DA0002CC08E0107561E4FCE018B569E4FFC0144
:102DB00060817181828193810E94E84FDC01CB01A7
:102DC000F80191838083CE0183569E4F9E01275642
:102DD0003E4FF90120813181FC0131832083CE01F6
:102DE00083569E4FFC01808191810197F1F79E01EE
:102DF00023563E4FF90191838083809134028830BD
:102E000008F410C380913302883008F40BC380911A
:102E10003502883008F406C381E190E09A83898303
:102E200089819A8122E030E0AC0167E082E00E9473
:102E3000F70981E190E09C838B838B819C8122E068
:102E400030E0AC0161E082E00E94F7090E940C0DC5
:102E500080E090E0A8ECB2E48BAB9CABADABBEAB3A
:102E60008E0103541E4F26E636E646E655E46BA96E
:102E70007CA98DA99EA90E946550DC01CB01F801B7
:102E800080839183A283B383CE0183549E4F20E03D
:102E900030E040E85FE3FC016081718182819381D1
:102EA0000E94E44F88234CF4CE018F539E4F21E0C3
:102EB00030E0FC013183208369C0CE0183549E4FF2
:102EC00020E03FEF4FE757E4FC0160817181828190
:102ED00093810E94615018160CF046C020E030E04B
:102EE00040E251E46BA97CA98DA99EA90E9465507E
:102EF000DC01CB018E010F531E4FBC01CD010E949E
:102F0000E84FDC01CB01F8019183808324C0CE011E
:102F10008D539E4F20E731E0FC0131832083CE01A9
:102F20008D539E4FFC01808191810197F1F79E01A5
:102F30002D533E4FF90191838083CE018F539E4FD5
:102F40009E012F533E4FF9012081318121503109DB
:102F5000FC0131832083CE018F539E4FFC01808181
:102F60009181892BA1F62CC08E010F531E4FCE01EB
:102F700083549E4FFC0160817181828193810E9404
:102F8000E84FDC01CB01F80191838083CE018B53A4
:102F90009E4F9E012F533E4FF90120813181FC014C
:102FA00031832083CE018B539E4FFC018081918120
:102FB0000197F1F79E012B533E4FF90191838083D6
:102FC0000E941D0D80E090E0A8E4B2E48FAB98AFC2
:102FD000A9AFBAAF8E010D541E4F26E636E646E67F
:102FE00055E46FA978AD89AD9AAD0E946550DC01BA
:102FF000CB01F80180839183A283B383CE018D54EA
:103000009E4F20E030E040E85FE3FC016081718189
:10301000828193810E94E44F88234CF4CE0189542D
:103020009E4F21E030E0FC013183208369C0CE0156
:103030008D549E4F20E03FEF4FE757E4FC01608145
:103040007181828193810E94615018160CF046C0F4
:1030500020E030E040E251E46FA978AD89AD9AAD4F
:103060000E946550DC01CB018E0109541E4FBC014A
:10307000CD010E94E84FDC01CB01F80191838083F0
:1030800024C0CE0187549E4F20E731E0FC013183FC
:103090002083CE0187549E4FFC018081918101974E
:1030A000F1F79E0127543E4FF90191838083CE01B1
:1030B00089549E4F9E0129543E4FF9012081318150
:1030C00021503109FC0131832083CE0189549E4F68
:1030D000FC0180819181892BA1F62CC08E010954BD
:1030E0001E4FCE018D549E4FFC0160817181828103
:1030F00093810E94E84FDC01CB01F801918380832A
:10310000CE0185549E4F9E0129543E4FF9012081E6
:103110003181FC0131832083CE0185549E4FFC0117
:10312000808191810197F1F79E0125543E4FF9016D
:10313000918380830E948C0E66E986E90E94520E7C
:1031400080E090E0AFE2B4E48BAF9CAFADAFBEAF38
:103150008E0107551E4F26E636E646E655E46BAD72
:103160007CAD8DAD9EAD0E946550DC01CB01F801B8
:1031700080839183A283B383CE0187559E4F20E045
:1031800030E040E85FE3FC016081718182819381DE
:103190000E94E44F88234CF4CE0183559E4F21E0DA
:1031A00030E0FC013183208369C0CE0187559E4FFA
:1031B00020E03FEF4FE757E4FC016081718182819D
:1031C00093810E94615018160CF046C020E030E058
:1031D00040E251E46BAD7CAD8DAD9EAD0E9465507B
:1031E000DC01CB018E0103551E4FBC01CD010E94B5
:1031F000E84FDC01CB01F8019183808324C0CE012C
:1032000081559E4F20E731E0FC0131832083CE01C0
:1032100081559E4FFC01808191810197F1F79E01BC
:1032200021553E4FF90191838083CE0183559E4FF6
:103230009E0123553E4FF9012081318121503109F2
:10324000FC0131832083CE0183559E4FFC01808198
:103250009181892BA1F62CC08E0103551E4FCE0102
:1032600087559E4FFC0160817181828193810E940C
:10327000E84FDC01CB01F80191838083CE018F54AC
:103280009E4F9E0123553E4FF90120813181FC0163
:1032900031832083CE018F549E4FFC018081918128
:1032A0000197F1F79E012F543E4FF90191838083DE
:1032B0000E94960E80E090E8ADEEB4E48BA79CA748
:1032C000ADA7BEA78E0101561E4F26E636E646E69E
:1032D00055E46BA57CA58DA59EA50E946550DC01DB
:1032E000CB01F80180839183A283B383CE01815601
:1032F0009E4F20E030E040E85FE3FC016081718197
:10330000828193810E94E44F88234CF4CE018D5535
:103310009E4F21E030E0FC013183208369C0CE0163
:1033200081569E4F20E03FEF4FE757E4FC0160815C
:103330007181828193810E94615018160CF046C001
:1033400020E030E040E251E46BA57CA58DA59EA570
:103350000E946550DC01CB018E010D551E4FBC0152
:10336000CD010E94E84FDC01CB01F80191838083FD
:1033700024C0CE018B559E4F20E731E0FC01318304
:103380002083CE018B559E4FFC0180819181019756
:10339000F1F79E012B553E4FF90191838083CE01B9
:1033A0008D559E4F9E012D553E4FF9012081318153
:1033B00021503109FC0131832083CE018D559E4F70
:1033C000FC0180819181892BA1F62CC08E010D55C5
:1033D0001E4FCE0181569E4FFC016081718182811A
:1033E00093810E94E84FDC01CB01F8019183808337
:1033F000CE0189559E4F9E012D553E4FF9012081EA
:103400003181FC0131832083CE0189559E4FFC011F
:10341000808191810197F1F79E0129553E4FF90175
:103420009183808389819A818436910509F4CECB7A
:1034300064C50E940C0D9E012D5B3F4F80E090E023
:10344000A8ECB2E4F90180839183A283B3838E0157
:103450000D5F1D4FCE018D5B9F4F26E636E646E69B
:1034600055E4FC0160817181828193810E946550E5
:10347000DC01CB01F80180839183A283B383CE0169
:103480008D5F9D4F20E030E040E85FE3FC0160810C
:103490007181828193810E94E44F88234CF4CE0194
:1034A000895F9D4F21E030E0FC01318320836DC0B6
:1034B000CE018D5F9D4F20E03FEF4FE757E4FC01C9
:1034C00060817181828193810E94615018160CF095
:1034D0004AC0CE018D5B9F4F20E030E040E251E4D6
:1034E000FC0160817181828193810E946550DC01C1
:1034F000CB018E01095F1D4FBC01CD010E94E84F39
:10350000DC01CB01F8019183808324C0CE01875F69
:103510009D4F20E731E0FC0131832083CE01875F9E
:103520009D4FFC01808191810197F1F79E01275FFA
:103530003D4FF90191838083CE01895F9D4F9E01AC
:10354000295F3D4FF9012081318121503109FC0172
:1035500031832083CE01895F9D4FFC018081918161
:10356000892BA1F62CC08E01095F1D4FCE018D5F06
:103570009D4FFC0160817181828193810E94E84F9F
:10358000DC01CB01F80191838083CE01855F9D4FE3
:103590009E01295F3D4FF90120813181FC0131837A
:1035A0002083CE01855F9D4FFC0180819181019731
:1035B000F1F79E01255F3D4FF901918380830E94C1
:1035C0001D0D9E01295B3F4F80E090E0A8E4B2E42E
:1035D000F90180839183A283B3838E0107501E4F2C
:1035E000CE01895B9F4F26E636E646E655E4FC01B0
:1035F00060817181828193810E946550DC01CB01E1
:10360000F80180839183A283B383CE0187509E4FBC
:1036100020E030E040E85FE3FC016081718182815D
:1036200093810E94E44F88234CF4CE0183509E4F37
:1036300021E030E0FC01318320836DC0CE01875052
:103640009E4F20E03FEF4FE757E4FC01608171811E
:10365000828193810E94615018160CF04AC0CE01FD
:10366000895B9F4F20E030E040E251E4FC01608143
:103670007181828193810E946550DC01CB018E01B2
:1036800003501E4FBC01CD010E94E84FDC01CB016D
:10369000F8019183808324C0CE0181509E4F20E7A2
:1036A00031E0FC0131832083CE0181509E4FFC012B
:1036B000808191810197F1F79E0121503E4FF901E0
:1036C00091838083CE0183509E4F9E0123503E4FB5
:1036D000F9012081318121503109FC01318320839E
:1036E000CE0183509E4FFC0180819181892BA1F6F0
:1036F0002CC08E0103501E4FCE0187509E4FFC01FF
:1037000060817181828193810E94E84FDC01CB014D
:10371000F80191838083CE018F5F9D4F9E012350DE
:103720003E4FF90120813181FC0131832083CE019C
:103730008F5F9D4FFC01808191810197F1F79E0180
:103740002F5F3D4FF901918380830E940C0D9E01F4
:10375000255B3F4F80E090E0A8ECB2E4F901808364
:103760009183A283B3838E0101511E4FCE01855BED
:103770009F4F26E636E646E655E4FC0160817181FE
:10378000828193810E946550DC01CB01F801808326
:103790009183A283B383CE0181519E4F20E030E01C
:1037A00040E85FE3FC0160817181828193810E9426
:1037B000E44F88234CF4CE018D509E4F21E030E041
:1037C000FC01318320836DC0CE0181519E4F20E0EA
:1037D0003FEF4FE757E4FC01608171818281938163
:1037E0000E94615018160CF04AC0CE01855B9F4FB5
:1037F00020E030E040E251E4FC016081718182818F
:1038000093810E946550DC01CB018E010D501E4F4B
:10381000BC01CD010E94E84FDC01CB01F80191838E
:10382000808324C0CE018B509E4F20E731E0FC0105
:1038300031832083CE018B509E4FFC01808191818A
:103840000197F1F79E012B503E4FF9019183808340
:10385000CE018D509E4F9E012D503E4FF90120818B
:10386000318121503109FC0131832083CE018D50FB
:103870009E4FFC0180819181892BA1F62CC08E0185
:103880000D501E4FCE0181519E4FFC016081718110
:10389000828193810E94E84FDC01CB01F801918382
:1038A0008083CE0189509E4F9E012D503E4FF901DD
:1038B00020813181FC0131832083CE0189509E4FCC
:1038C000FC01808191810197F1F79E0129503E4FC3
:1038D000F901918380830E941D0D9E01215B3F4F62
:1038E00080E090E0A8E4B2E4F90180839183A283B0
:1038F000B3838E010B511E4FCE01815B9F4F26E695
:1039000036E646E655E4FC0160817181828193814F
:103910000E946550DC01CB01F80180839183A28372
:10392000B383CE018B519E4F20E030E040E85FE34F
:10393000FC0160817181828193810E94E44F882320
:103940004CF4CE0187519E4F21E030E0FC013183E1
:1039500020836DC0CE018B519E4F20E03FEF4FE79B
:1039600057E4FC0160817181828193810E946150E2
:1039700018160CF04AC0CE01815B9F4F20E030E06A
:1039800040E251E4FC0160817181828193810E9457
:103990006550DC01CB018E0107511E4FBC01CD01EA
:1039A0000E94E84FDC01CB01F8019183808324C0A1
:1039B000CE0185519E4F20E731E0FC013183208309
:1039C000CE0185519E4FFC01808191810197F1F7D5
:1039D0009E0125513E4FF90191838083CE0187518D
:1039E0009E4F9E0127513E4FF90120813181215088
:1039F0003109FC0131832083CE0187519E4FFC01A8
:103A000080819181892BA1F62CC08E0107511E4F18
:103A1000CE018B519E4FFC01608171818281938127
:103A20000E94E84FDC01CB01F80191838083CE0135
:103A300083519E4F9E0127513E4FF90120813181D4
:103A4000FC0131832083CE0183519E4FFC01808194
:103A500091810197F1F79E0123513E4FF901918326
:103A600080830E940C0D9E012D5A3F4F80E090E014
:103A7000A8ECB2E4F90180839183A283B3838E0121
:103A800005521E4FCE018D5A9F4F26E636E646E67A
:103A900055E4FC0160817181828193810E946550AF
:103AA000DC01CB01F80180839183A283B383CE0133
:103AB00085529E4F20E030E040E85FE3FC016081EA
:103AC0007181828193810E94E44F88234CF4CE015E
:103AD00081529E4F21E030E0FC01318320836DC094
:103AE000CE0185529E4F20E03FEF4FE757E4FC01A7
:103AF00060817181828193810E94615018160CF05F
:103B00004AC0CE018D5A9F4F20E030E040E251E4A0
:103B1000FC0160817181828193810E946550DC018A
:103B2000CB018E0101521E4FBC01CD010E94E84F16
:103B3000DC01CB01F8019183808324C0CE018F5139
:103B40009E4F20E731E0FC0131832083CE018F516D
:103B50009E4FFC01808191810197F1F79E012F51C9
:103B60003E4FF90191838083CE0181529E4F9E0189
:103B700021523E4FF9012081318121503109FC0150
:103B800031832083CE0181529E4FFC01808191813F
:103B9000892BA1F62CC08E0101521E4FCE018552F9
:103BA0009E4FFC0160817181828193810E94E84F68
:103BB000DC01CB01F80191838083CE018D519E4FB2
:103BC0009E0121523E4FF90120813181FC01318358
:103BD0002083CE018D519E4FFC0180819181019700
:103BE000F1F79E012D513E4FF901918380830E9490
:103BF0001D0D9E01295A3F4F80E090E0A8E4B2E4F9
:103C0000F90180839183A283B3838E010F521E4FEB
:103C1000CE01895A9F4F26E636E646E655E4FC017A
:103C200060817181828193810E946550DC01CB01AA
:103C3000F80180839183A283B383CE018F529E4F7C
:103C400020E030E040E85FE3FC0160817181828127
:103C500093810E94E44F88234CF4CE018B529E4FF7
:103C600021E030E0FC01318320836DC0CE018F5212
:103C70009E4F20E03FEF4FE757E4FC0160817181E8
:103C8000828193810E94615018160CF04AC0CE01C7
:103C9000895A9F4F20E030E040E251E4FC0160810E
:103CA0007181828193810E946550DC01CB018E017C
:103CB0000B521E4FBC01CD010E94E84FDC01CB012D
:103CC000F8019183808324C0CE0189529E4F20E762
:103CD00031E0FC0131832083CE0189529E4FFC01EB
:103CE000808191810197F1F79E0129523E4FF901A0
:103CF00091838083CE018B529E4F9E012B523E4F6B
:103D0000F9012081318121503109FC013183208367
:103D1000CE018B529E4FFC0180819181892BA1F6AF
:103D20002CC08E010B521E4FCE018F529E4FFC01B4
:103D300060817181828193810E94E84FDC01CB0117
:103D4000F80191838083CE0187529E4F9E012B52B2
:103D50003E4FF90120813181FC0131832083CE0166
:103D600087529E4FFC01808191810197F1F79E015E
:103D700027523E4FF901918380830E94960E80E086
:103D800090E8ABEBB4E48FA798ABA9ABBAAB8E01CC
:103D900009531E4F26E636E646E655E46FA578A998
:103DA00089A99AA90E946550DC01CB01F8018083A2
:103DB0009183A283B383CE0189539E4F20E030E0EC
:103DC00040E85FE3FC0160817181828193810E9400
:103DD000E44F88234CF4CE0185539E4F21E030E020
:103DE000FC013183208369C0CE0189539E4F20E0BE
:103DF0003FEF4FE757E4FC0160817181828193813D
:103E00000E94615018160CF046C020E030E040E2FD
:103E100051E46FA578A989A99AA90E946550DC018F
:103E2000CB018E0105531E4FBC01CD010E94E84F0E
:103E3000DC01CB01F8019183808324C0CE01835340
:103E40009E4F20E731E0FC0131832083CE01835374
:103E50009E4FFC01808191810197F1F79E012353D0
:103E60003E4FF90191838083CE0185539E4F9E0181
:103E700025533E4FF9012081318121503109FC0148
:103E800031832083CE0185539E4FFC018081918137
:103E9000892BA1F62CC08E0105531E4FCE018953EC
:103EA0009E4FFC0160817181828193810E94E84F65
:103EB000DC01CB01F80191838083CE0181539E4FB9
:103EC0009E0125533E4FF90120813181FC01318350
:103ED0002083CE0181539E4FFC0180819181019707
:103EE000F1F79E0121533E4FF901918380830E9497
:103EF000AA0E85E690E09A83898389819A8140970A
:103F000009F0B3C38B819C81409709F492CAADC379
:103F100083E00E94F10D8093330282E00E94F10D54
:103F20008093340281E00E94F10D8093350210925B
:103F3000320243E061E081E00E94350E42E065E03C
:103F400081E00E94350E41E069E081E00E94350E7B
:103F500089819A8122E030E0AC0167E082E00E9432
:103F6000F70980913402883048F081E08093320272
:103F70000E948C0E60EA80EA0E94520E8091330209
:103F8000873068F480913202882349F481E080937D
:103F900032020E948C0E62E382E80E94520E8091EF
:103FA0003502883068F480913202882349F481E038
:103FB000809332020E948C0E62E882E30E94520ECD
:103FC00080913402873070F480913302873050F44E
:103FD00080913502873030F40E948C0E60EA80EACE
:103FE0000E94520E80913402883008F43EC38091C2
:103FF0003302883008F439C380913502883008F4E0
:1040000034C384E090E09A83898389819A8122E095
:1040100030E0AC0167E082E00E94F70984E090E0C4
:104020009C838B838B819C8122E030E0AC0161E03A
:1040300082E00E94F7090E940C0D9E01215A3F4F19
:1040400080E090E0A8ECB2E4F90180839183A28340
:10405000B3838E01055D1D4FCE01815A9F4F26E629
:1040600036E646E655E4FC016081718182819381E8
:104070000E946550DC01CB01F80180839183A2830B
:10408000B383CE01855D9D4F20E030E040E85FE3E3
:10409000FC0160817181828193810E94E44F8823B9
:1040A0004CF4CE01815D9D4F21E030E0FC01318375
:1040B00020836DC0CE01855D9D4F20E03FEF4FE72F
:1040C00057E4FC0160817181828193810E9461507B
:1040D00018160CF04AC0CE01815A9F4F20E030E004
:1040E00040E251E4FC0160817181828193810E94F0
:1040F0006550DC01CB018E01015D1D4FBC01CD017E
:104100000E94E84FDC01CB01F8019183808324C039
:10411000CE018F5C9D4F20E731E0FC01318320838D
:10412000CE018F5C9D4FFC01808191810197F1F759
:104130009E012F5C3D4FF90191838083CE01815D0B
:104140009D4F9E01215D3D4FF9012081318121501C
:104150003109FC0131832083CE01815D9D4FFC013B
:1041600080819181892BA1F62CC08E01015D1D4FAC
:10417000CE01855D9D4FFC016081718182819381BB
:104180000E94E84FDC01CB01F80191838083CE01CE
:104190008D5C9D4F9E01215D3D4FF9012081318154
:1041A000FC0131832083CE018D5C9D4FFC01808119
:1041B00091810197F1F79E012D5C3D4FF9019183AB
:1041C00080830E941D0D9E012D593F4F80E090E09D
:1041D000A8E4B2E4F90180839183A283B3838E01C2
:1041E0000F5D1D4FCE018D599F4F26E636E646E600
:1041F00055E4FC0160817181828193810E94655048
:10420000DC01CB01F80180839183A283B383CE01CB
:104210008F5D9D4F20E030E040E85FE3FC0160816E
:104220007181828193810E94E44F88234CF4CE01F6
:104230008B5D9D4F21E030E0FC01318320836DC018
:10424000CE018F5D9D4F20E03FEF4FE757E4FC012B
:1042500060817181828193810E94615018160CF0F7
:104260004AC0CE018D599F4F20E030E040E251E43A
:10427000FC0160817181828193810E946550DC0123
:10428000CB018E010B5D1D4FBC01CD010E94E84F9B
:10429000DC01CB01F8019183808324C0CE01895DCC
:1042A0009D4F20E731E0FC0131832083CE01895D01
:1042B0009D4FFC01808191810197F1F79E01295D5D
:1042C0003D4FF90191838083CE018B5D9D4F9E010F
:1042D0002B5D3D4FF9012081318121503109FC01D5
:1042E00031832083CE018B5D9D4FFC0180819181C4
:1042F000892BA1F62CC08E010B5D1D4FCE018F5D69
:104300009D4FFC0160817181828193810E94E84F01
:10431000DC01CB01F80191838083CE01875D9D4F45
:104320009E012B5D3D4FF90120813181FC013183DC
:104330002083CE01875D9D4FFC0180819181019793
:10434000F1F79E01275D3D4FF901918380830E9423
:104350008C0E66E986E90E94520E9E0129593F4F54
:1043600080E090E0AFE2B4E4F90180839183A2831E
:10437000B3838E01095E1D4FCE0189599F4F26E6FA
:1043800036E646E655E4FC016081718182819381C5
:104390000E946550DC01CB01F80180839183A283E8
:1043A000B383CE01895E9D4F20E030E040E85FE3BB
:1043B000FC0160817181828193810E94E44F882396
:1043C0004CF4CE01855E9D4F21E030E0FC0131834D
:1043D00020836DC0CE01895E9D4F20E03FEF4FE707
:1043E00057E4FC0160817181828193810E94615058
:1043F00018160CF04AC0CE0189599F4F20E030E0DA
:1044000040E251E4FC0160817181828193810E94CC
:104410006550DC01CB018E01055E1D4FBC01CD0155
:104420000E94E84FDC01CB01F8019183808324C016
:10443000CE01835E9D4F20E731E0FC013183208374
:10444000CE01835E9D4FFC01808191810197F1F740
:104450009E01235E3D4FF90191838083CE01855EED
:104460009D4F9E01255E3D4FF901208131812150F4
:104470003109FC0131832083CE01855E9D4FFC0113
:1044800080819181892BA1F62CC08E01055E1D4F84
:10449000CE01895E9D4FFC01608171818281938193
:1044A0000E94E84FDC01CB01F80191838083CE01AB
:1044B000815E9D4F9E01255E3D4FF9012081318136
:1044C000FC0131832083CE01815E9D4FFC01808100
:1044D00091810197F1F79E01215E3D4FF901918392
:1044E00080830E94960E9E01215C3F4F80E090E801
:1044F000ADEEB4E4F90180839183A283B3838E018E
:10450000035F1D4FCE01CF9626E636E646E655E41C
:10451000FC0160817181828193810E946550DC0180
:10452000CB01F80180839183A283B383CE01835FA3
:104530009D4F20E030E040E85FE3FC016081718145
:10454000828193810E94E44F88234CF4CE018F5ED8
:104550009D4F21E030E0FC01318320836CC0CE010F
:10456000835F9D4F20E03FEF4FE757E4FC01608100
:104570007181828193810E94615018160CF049C0AC
:10458000CE01CF9620E030E040E251E4FC016081B2
:104590007181828193810E946550DC01CB018E0183
:1045A0000F5E1D4FBC01CD010E94E84FDC01CB0125
:1045B000F8019183808324C0CE018D5E9D4F20E75A
:1045C00031E0FC0131832083CE018D5E9D4FFC01E3
:1045D000808191810197F1F79E012D5E3D4FF90198
:1045E00091838083CE018F5E9D4F9E012F5E3D4F54
:1045F000F9012081318121503109FC01318320836F
:10460000CE018F5E9D4FFC0180819181892BA1F6A7
:104610002CC08E010F5E1D4FCE01835F9D4FFC01AC
:1046200060817181828193810E94E84FDC01CB011E
:10463000F80191838083CE018B5E9D4F9E012F5E9A
:104640003D4FF90120813181FC0131832083CE016E
:104650008B5E9D4FFC01808191810197F1F79E0156
:104660002B5E3D4FF9019183808389819A81853644
:10467000910509F44DCC36C60E940C0D9E012159BE
:104680003F4F80E090E0A8ECB2E4F9018083918391
:10469000A283B3838E0105581D4FCE0181599F4FD0
:1046A00026E636E646E655E4FC01608171818281AA
:1046B00093810E946550DC01CB01F80180839183D6
:1046C000A283B383CE0185589D4F20E030E040E8BF
:1046D0005FE3FC0160817181828193810E94E44FDC
:1046E00088234CF4CE0181589D4F21E030E0FC013D
:1046F000318320836DC0CE0185589D4F20E03FEF70
:104700004FE757E4FC0160817181828193810E94AF
:10471000615018160CF04AC0CE0181599F4F20E01D
:1047200030E040E251E4FC0160817181828193813B
:104730000E946550DC01CB018E0101581D4FBC0168
:10474000CD010E94E84FDC01CB01F8019183808309
:1047500024C0CE018F579D4F20E731E0FC0131830B
:104760002083CE018F579D4FFC018081918101975D
:10477000F1F79E012F573D4FF90191838083CE01C0
:1047800081589D4F9E0121583D4FF9012081318173
:1047900021503109FC0131832083CE0181589D4F86
:1047A000FC0180819181892BA1F62CC08E010158DA
:1047B0001D4FCE0185589D4FFC0160817181828122
:1047C00093810E94E84FDC01CB01F8019183808343
:1047D000CE018D579D4F9E0121583D4FF9012081FB
:1047E0003181FC0131832083CE018D579D4FFC0127
:1047F000808191810197F1F79E012D573D4FF9017D
:10480000918380830E941D0D9E012D583F4F80E0B3
:1048100090E0A8E4B2E4F90180839183A283B3839A
:104820008E010F581D4FCE018D589F4F26E636E65C
:1048300046E655E4FC0160817181828193810E948A
:104840006550DC01CB01F80180839183A283B3839F
:10485000CE018F589D4F20E030E040E85FE3FC013F
:1048600060817181828193810E94E44F88234CF49E
:10487000CE018B589D4F21E030E0FC013183208335
:104880006DC0CE018F589D4F20E03FEF4FE757E4BA
:10489000FC0160817181828193810E9461501816B0
:1048A0000CF04AC0CE018D589F4F20E030E040E22E
:1048B00051E4FC0160817181828193810E94655085
:1048C000DC01CB018E010B581D4FBC01CD010E94B4
:1048D000E84FDC01CB01F8019183808324C0CE0135
:1048E00089589D4F20E731E0FC0131832083CE01C0
:1048F00089589D4FFC01808191810197F1F79E01BC
:1049000029583D4FF90191838083CE018B589D4FEB
:104910009E012B583D4FF9012081318121503109F1
:10492000FC0131832083CE018B589D4FFC01808197
:104930009181892BA1F62CC08E010B581D4FCE0101
:104940008F589D4FFC0160817181828193810E940B
:10495000E84FDC01CB01F80191838083CE018758B9
:104960009D4F9E012B583D4FF90120813181FC0163
:1049700031832083CE0187589D4FFC018081918136
:104980000197F1F79E0127583D4FF90191838083EC
:104990000E940C0D9E0129583F4F80E090E0A8EC4A
:1049A000B2E4F90180839183A283B3838E01095914
:1049B0001D4FCE0189589F4F26E636E646E655E460
:1049C000FC0160817181828193810E946550DC01CC
:1049D000CB01F80180839183A283B383CE018959EF
:1049E0009D4F20E030E040E85FE3FC016081718191
:1049F000828193810E94E44F88234CF4CE01855933
:104A00009D4F21E030E0FC01318320836DC0CE0159
:104A100089599D4F20E03FEF4FE757E4FC0160814B
:104A20007181828193810E94615018160CF04AC0F6
:104A3000CE0189589F4F20E030E040E251E4FC0174
:104A400060817181828193810E946550DC01CB017C
:104A50008E0105591D4FBC01CD010E94E84FDC01BC
:104A6000CB01F8019183808324C0CE0183599D4FEF
:104A700020E731E0FC0131832083CE0183599D4F33
:104A8000FC01808191810197F1F79E0123593D4FEF
:104A9000F90191838083CE0185599D4F9E0125594F
:104AA0003D4FF9012081318121503109FC013183D1
:104AB0002083CE0185599D4FFC0180819181892BF6
:104AC000A1F62CC08E0105591D4FCE0189599D4F6D
:104AD000FC0160817181828193810E94E84FDC0139
:104AE000CB01F80191838083CE0181599D4F9E01B6
:104AF00025593D4FF90120813181FC01318320830B
:104B0000CE0181599D4FFC01808191810197F1F780
:104B10009E0121593D4FF901918380830E941D0D13
:104B20009E0125583F4F80E090E0A8E4B2E4F901EF
:104B300080839183A283B3838E01035A1D4FCE01DC
:104B400085589F4F26E636E646E655E4FC0160812F
:104B50007181828193810E946550DC01CB01F80153
:104B600080839183A283B383CE01835A9D4F20E03B
:104B700030E040E85FE3FC016081718182819381D4
:104B80000E94E44F88234CF4CE018F599D4F21E0C1
:104B900030E0FC01318320836DC0CE01835A9D4FEC
:104BA00020E03FEF4FE757E4FC0160817181828193
:104BB00093810E94615018160CF04AC0CE018558AE
:104BC0009F4F20E030E040E251E4FC0160817181C0
:104BD000828193810E946550DC01CB018E010F59C7
:104BE0001D4FBC01CD010E94E84FDC01CB01F80153
:104BF0009183808324C0CE018D599D4F20E731E001
:104C0000FC0131832083CE018D599D4FFC018081B1
:104C100091810197F1F79E012D593D4FF901918343
:104C20008083CE018F599D4F9E012F593D4FF90131
:104C30002081318121503109FC0131832083CE0153
:104C40008F599D4FFC0180819181892BA1F62CC049
:104C50008E010F591D4FCE01835A9D4FFC0160817B
:104C60007181828193810E94E84FDC01CB01F801C0
:104C700091838083CE018B599D4F9E012F593D4FCB
:104C8000F90120813181FC0131832083CE018B59D0
:104C90009D4FFC01808191810197F1F79E012B5975
:104CA0003D4FF901918380830E940C0D9E01215894
:104CB0003F4F80E090E0A8ECB2E4F901808391835B
:104CC000A283B3838E010D5A1D4FCE0181589F4F91
:104CD00026E636E646E655E4FC0160817181828174
:104CE00093810E946550DC01CB01F80180839183A0
:104CF000A283B383CE018D5A9D4F20E030E040E87F
:104D00005FE3FC0160817181828193810E94E44FA5
:104D100088234CF4CE01895A9D4F21E030E0FC01FC
:104D2000318320836DC0CE018D5A9D4F20E03FEF2F
:104D30004FE757E4FC0160817181828193810E9479
:104D4000615018160CF04AC0CE0181589F4F20E0E8
:104D500030E040E251E4FC01608171818281938105
:104D60000E946550DC01CB018E01095A1D4FBC0128
:104D7000CD010E94E84FDC01CB01F80191838083D3
:104D800024C0CE01875A9D4F20E731E0FC013183DA
:104D90002083CE01875A9D4FFC018081918101972C
:104DA000F1F79E01275A3D4FF90191838083CE018F
:104DB000895A9D4F9E01295A3D4FF9012081318129
:104DC00021503109FC0131832083CE01895A9D4F46
:104DD000FC0180819181892BA1F62CC08E01095A9A
:104DE0001D4FCE018D5A9D4FFC01608171818281E2
:104DF00093810E94E84FDC01CB01F801918380830D
:104E0000CE01855A9D4F9E01295A3D4FF9012081BF
:104E10003181FC0131832083CE01855A9D4FFC01F5
:104E2000808191810197F1F79E01255A3D4FF9014B
:104E3000918380830E941D0D9E012D573F4F80E07E
:104E400090E0A8E4B2E4F90180839183A283B38364
:104E50008E01075B1D4FCE018D579F4F26E636E62C
:104E600046E655E4FC0160817181828193810E9454
:104E70006550DC01CB01F80180839183A283B38369
:104E8000CE01875B9D4F20E030E040E85FE3FC010E
:104E900060817181828193810E94E44F88234CF468
:104EA000CE01835B9D4F21E030E0FC013183208304
:104EB0006DC0CE01875B9D4F20E03FEF4FE757E489
:104EC000FC0160817181828193810E94615018167A
:104ED0000CF04AC0CE018D579F4F20E030E040E2F9
:104EE00051E4FC0160817181828193810E9465504F
:104EF000DC01CB018E01035B1D4FBC01CD010E9483
:104F0000E84FDC01CB01F8019183808324C0CE01FE
:104F1000815B9D4F20E731E0FC0131832083CE018E
:104F2000815B9D4FFC01808191810197F1F79E018A
:104F3000215B3D4FF90191838083CE01835B9D4FBF
:104F40009E01235B3D4FF9012081318121503109C0
:104F5000FC0131832083CE01835B9D4FFC01808166
:104F60009181892BA1F62CC08E01035B1D4FCE01D0
:104F7000875B9D4FFC0160817181828193810E94DA
:104F8000E84FDC01CB01F80191838083CE018F5A79
:104F90009D4F9E01235B3D4FF90120813181FC0132
:104FA00031832083CE018F5A9D4FFC0180819181F6
:104FB0000197F1F79E012F5A3D4FF90191838083AC
:104FC0000E948C0E9E0129573F4F80E090E0A8EC94
:104FD000B2E4F90180839183A283B3838E01015CE3
:104FE0001D4FCE0189579F4F26E636E646E655E42B
:104FF000FC0160817181828193810E946550DC0196
:10500000CB01F80180839183A283B383CE01815CBD
:105010009D4F20E030E040E85FE3FC01608171815A
:10502000828193810E94E44F88234CF4CE018D5BF2
:105030009D4F21E030E0FC01318320836DC0CE0123
:10504000815C9D4F20E03FEF4FE757E4FC0160811A
:105050007181828193810E94615018160CF04AC0C0
:10506000CE0189579F4F20E030E040E251E4FC013F
:1050700060817181828193810E946550DC01CB0146
:105080008E010D5B1D4FBC01CD010E94E84FDC017C
:10509000CB01F8019183808324C0CE018B5B9D4FAF
:1050A00020E731E0FC0131832083CE018B5B9D4FF3
:1050B000FC01808191810197F1F79E012B5B3D4FAF
:1050C000F90191838083CE018D5B9D4F9E012D5B05
:1050D0003D4FF9012081318121503109FC0131839B
:1050E0002083CE018D5B9D4FFC0180819181892BB6
:1050F000A1F62CC08E010D5B1D4FCE01815C9D4F32
:10510000FC0160817181828193810E94E84FDC0102
:10511000CB01F80191838083CE01895B9D4F9E0175
:105120002D5B3D4FF90120813181FC0131832083CA
:10513000CE01895B9D4FFC01808191810197F1F740
:105140009E01295B3D4FF901918380830E94A00E4F
:105150009E01255A3F4F80E090E0A8E4B4E4F901B5
:1051600080839183A283B3838E010B5C1D4FCE019C
:10517000855A9F4F26E636E646E655E4FC016081F7
:105180007181828193810E946550DC01CB01F8011D
:1051900080839183A283B383CE018B5C9D4F20E0FB
:1051A00030E040E85FE3FC0160817181828193819E
:1051B0000E94E44F88234CF4CE01875C9D4F21E090
:1051C00030E0FC01318320836DC0CE018B5C9D4FAC
:1051D00020E03FEF4FE757E4FC016081718182815D
:1051E00093810E94615018160CF04AC0CE01855A76
:1051F0009F4F20E030E040E251E4FC01608171818A
:10520000828193810E946550DC01CB018E01075C95
:105210001D4FBC01CD010E94E84FDC01CB01F8011C
:105220009183808324C0CE01855C9D4F20E731E0CF
:10523000FC0131832083CE01855C9D4FFC01808180
:1052400091810197F1F79E01255C3D4FF901918312
:105250008083CE01875C9D4F9E01275C3D4FF90105
:105260002081318121503109FC0131832083CE011D
:10527000875C9D4FFC0180819181892BA1F62CC018
:105280008E01075C1D4FCE018B5C9D4FFC01608140
:105290007181828193810E94E84FDC01CB01F8018A
:1052A00091838083CE01835C9D4F9E01275C3D4F9F
:1052B000F90120813181FC0131832083CE01835C9F
:1052C0009D4FFC01808191810197F1F79E01235C44
:1052D0003D4FF901918380830E94AA0E87E690E0FA
:1052E0009A83898389819A810A9709F0B5C38B8152
:1052F0009C810A9709F4C0C9AFC383E00E94F10DF5
:105300008093330282E00E94F10D8093340281E0A9
:105310000E94F10D809335021092320243E061E069
:1053200081E00E94350E42E065E081E00E94350E8A
:1053300041E069E081E00E94350E89819A8122E096
:1053400030E0AC0167E082E00E94F709809134020E
:10535000883048F081E0809332020E948C0E60EA2F
:1053600080EA0E94520E80913302873068F4809167
:105370003202882349F481E0809332020E948C0E2D
:1053800062E382E80E94520E80913502883068F410
:1053900080913202882349F481E0809332020E9496
:1053A0008C0E62E882E30E94520E809134028730B4
:1053B00070F480913302873050F480913502873049
:1053C00030F40E948C0E60EA80EA0E94520E8091B6
:1053D0003402883008F440C380913302883008F4E6
:1053E0003BC380913502883008F436C383E190E0F6
:1053F0009A83898389819A8122E030E0AC0167E059
:1054000082E00E94F70983E190E09C838B838B818B
:105410009C8122E030E0AC0161E082E00E94F7096B
:105420000E940C0D9E0121573F4F80E090E0A8ECB8
:10543000B2E4F90180839183A283B3838E010D5579
:105440001D4FCE0181579F4F26E636E646E655E4CE
:10545000FC0160817181828193810E946550DC0131
:10546000CB01F80180839183A283B383CE018D5554
:105470009D4F20E030E040E85FE3FC0160817181F6
:10548000828193810E94E44F88234CF4CE01895598
:105490009D4F21E030E0FC01318320836DC0CE01BF
:1054A0008D559D4F20E03FEF4FE757E4FC016081B1
:1054B0007181828193810E94615018160CF04AC05C
:1054C000CE0181579F4F20E030E040E251E4FC01E3
:1054D00060817181828193810E946550DC01CB01E2
:1054E0008E0109551D4FBC01CD010E94E84FDC0122
:1054F000CB01F8019183808324C0CE0187559D4F55
:1055000020E731E0FC0131832083CE0187559D4F98
:10551000FC01808191810197F1F79E0127553D4F54
:10552000F90191838083CE0189559D4F9E012955B4
:105530003D4FF9012081318121503109FC01318336
:105540002083CE0189559D4FFC0180819181892B5B
:10555000A1F62CC08E0109551D4FCE018D559D4FD2
:10556000FC0160817181828193810E94E84FDC019E
:10557000CB01F80191838083CE0185559D4F9E011B
:1055800029553D4FF90120813181FC013183208370
:10559000CE0185559D4FFC01808191810197F1F7E6
:1055A0009E0125553D4FF901918380830E941D0D79
:1055B0009E012D563F4F80E090E0A8E4B2E4F9014F
:1055C00080839183A283B3838E0107561D4FCE0142
:1055D0008D569F4F26E636E646E655E4FC0160818F
:1055E0007181828193810E946550DC01CB01F801B9
:1055F00080839183A283B383CE0187569D4F20E0A1
:1056000030E040E85FE3FC01608171818281938139
:105610000E94E44F88234CF4CE0183569D4F21E035
:1056200030E0FC01318320836DC0CE0187569D4F51
:1056300020E03FEF4FE757E4FC01608171818281F8
:1056400093810E94615018160CF04AC0CE018D560D
:105650009F4F20E030E040E251E4FC016081718125
:10566000828193810E946550DC01CB018E0103563B
:105670001D4FBC01CD010E94E84FDC01CB01F801B8
:105680009183808324C0CE0181569D4F20E731E075
:10569000FC0131832083CE0181569D4FFC01808126
:1056A00091810197F1F79E0121563D4FF9019183B8
:1056B0008083CE0183569D4F9E0123563D4FF901B5
:1056C0002081318121503109FC0131832083CE01B9
:1056D00083569D4FFC0180819181892BA1F62CC0BE
:1056E0008E0103561D4FCE0187569D4FFC016081F0
:1056F0007181828193810E94E84FDC01CB01F80126
:1057000091838083CE018F559D4F9E0123563D4F3F
:10571000F90120813181FC0131832083CE018F5535
:105720009D4FFC01808191810197F1F79E012F55DA
:105730003D4FF901918380830E948C0E66E986E9D2
:105740000E94520E9E0129563F4F80E090E0A6E154
:10575000B4E4F90180839183A283B3838E0101575E
:105760001D4FCE0189569F4F26E636E646E655E4A4
:10577000FC0160817181828193810E946550DC010E
:10578000CB01F80180839183A283B383CE0181573B
:105790009D4F20E030E040E85FE3FC0160817181D3
:1057A000828193810E94E44F88234CF4CE018D5670
:1057B0009D4F21E030E0FC01318320836DC0CE019C
:1057C00081579D4F20E03FEF4FE757E4FC01608198
:1057D0007181828193810E94615018160CF04AC039
:1057E000CE0189569F4F20E030E040E251E4FC01B9
:1057F00060817181828193810E946550DC01CB01BF
:105800008E010D561D4FBC01CD010E94E84FDC01F9
:10581000CB01F8019183808324C0CE018B569D4F2C
:1058200020E731E0FC0131832083CE018B569D4F70
:10583000FC01808191810197F1F79E012B563D4F2C
:10584000F90191838083CE018D569D4F9E012D5687
:105850003D4FF9012081318121503109FC01318313
:105860002083CE018D569D4FFC0180819181892B33
:10587000A1F62CC08E010D561D4FCE0181579D4FB4
:10588000FC0160817181828193810E94E84FDC017B
:10589000CB01F80191838083CE0189569D4F9E01F3
:1058A0002D563D4FF90120813181FC013183208348
:1058B000CE0189569D4FFC01808191810197F1F7BE
:1058C0009E0129563D4FF901918380830E94960ED7
:1058D0009E0125593F4F80E090E8A2EAB4E4F90127
:1058E00080839183A283B3838E010B571D4FCE011A
:1058F00085599F4F26E636E646E655E4FC01608171
:105900007181828193810E946550DC01CB01F80195
:1059100080839183A283B383CE018B579D4F20E078
:1059200030E040E85FE3FC01608171818281938116
:105930000E94E44F88234CF4CE0187579D4F21E00D
:1059400030E0FC01318320836DC0CE018B579D4F29
:1059500020E03FEF4FE757E4FC01608171818281D5
:1059600093810E94615018160CF04AC0CE018559EF
:105970009F4F20E030E040E251E4FC016081718102
:10598000828193810E946550DC01CB018E01075713
:105990001D4FBC01CD010E94E84FDC01CB01F80195
:1059A0009183808324C0CE0185579D4F20E731E04D
:1059B000FC0131832083CE0185579D4FFC018081FE
:1059C00091810197F1F79E0125573D4FF901918390
:1059D0008083CE0187579D4F9E0127573D4FF90188
:1059E0002081318121503109FC0131832083CE0196
:1059F00087579D4FFC0180819181892BA1F62CC096
:105A00008E0107571D4FCE018B579D4FFC016081C2
:105A10007181828193810E94E84FDC01CB01F80102
:105A200091838083CE0183579D4F9E0127573D4F21
:105A3000F90120813181FC0131832083CE0183571C
:105A40009D4FFC01808191810197F1F79E012357C1
:105A50003D4FF9019183808389819A818736910531
:105A600009F44BCC36C60E940C0D9E0121563F4FC7
:105A700080E090E0A8ECB2E4F90180839183A283F6
:105A8000B3838E010D501D4FCE0181569F4F26E6E8
:105A900036E646E655E4FC0160817181828193819E
:105AA0000E946550DC01CB01F80180839183A283C1
:105AB000B383CE018D509D4F20E030E040E85FE39E
:105AC000FC0160817181828193810E94E44F88236F
:105AD0004CF4CE0189509D4F21E030E0FC01318330
