S01C000057686974655F4C696E655F466F6C6C6F77696E672E7372656310
S113000071C0000083C0000081C000007FC00000F8
S11300107DC000007BC0000079C0000077C00000F4
S113002075C0000073C0000071C000006FC0000004
S11300306DC000006BC0000069C0000067C0000014
S113004065C0000063C0000061C000005FC0000024
S11300505DC000005BC0000059C0000057C0000034
S113006055C0000053C0000051C000004FC0000044
S11300704DC000004BC0000049C0000047C0000054
S113008045C0000043C0000041C000003FC0000064
S11300903DC000003BC0000039C0000037C0000074
S11300A035C0000033C0000031C000002FC0000084
S11300B02DC000002BC0000029C0000027C0000094
S11300C025C0000023C0000021C000001FC00000A4
S11300D01DC000001BC0000019C0000017C00000B4
S11300E015C0000011241FBECFEFD1E2DEBFCDBF8B
S11300F000E00CBF22E0A0E0B2E001C01D92A331F9
S1130100B207E1F70E94680C0C94E20D79CF0F93CB
S11301101F93CF93DF93CDB7DEB7C057D1090FB686
S1130120F894DEBF0FBECDBF80E090E0A0E8BFE34F
S113013089839A83AB83BC838E0109591F4F26E6BA
S113014036E646E655E469817A818B819C810E947A
S1130150570DDC01CB01F80180839183A283B38323
S1130160CE0189599F4F20E030E040E85FE3FC0175
S113017060817181828193810E94D60C88234CF422
S1130180CE0185599F4F21E030E0FC01318320836B
S113019069C0CE0189599F4F20E03FEF4FE757E4F4
S11301A0FC0160817181828193810E94530D181634
S11301B00CF046C020E030E040E251E469817A81ED
S11301C08B819C810E94570DDC01CB018E01055966
S11301D01F4FBC01CD010E94DA0CDC01CB01F801F8
S11301E09183808324C0CE0183599F4F20E731E05F
S11301F0FC0131832083CE0183599F4FFC01808110
S113020091810197F1F79E0123593F4FF9019183A1
S11302108083CE0185599F4F9E0125593F4FF90197
S11302202081318121503109FC0131832083CE01A9
S113023085599F4FFC0180819181892BA1F62CC0A7
S11302408E0105591F4FCE0189599F4FFC016081D2
S11302507181828193810E94DA0CDC01CB01F80167
S113026091838083CE0181599F4F9E0125593F4F31
S1130270F90120813181FC0131832083CE01815930
S11302809F4FFC01808191810197F1F79E012159D3
S11302903F4FF9019183808388E290E028E230E0C7
S11302A0F90120812E7FFC01208388E290E028E27E
S11302B030E0F90120812D7FFC01208388E290E069
S11302C020E3FC01208388E290E028E230E0F90199
S11302D020812460FC01208380E090E0A0EAB0E467
S11302E08D839E83AF83B8878E01035A1F4F26E602
S11302F036E646E655E46D817E818F8198850E94BD
S1130300570DDC01CB01F80180839183A283B38371
S1130310CE01835A9F4F20E030E040E85FE3FC01C8
S113032060817181828193810E94D60C88234CF470
S1130330CE018F599F4F21E030E0FC0131832083AF
S113034069C0CE01835A9F4F20E03FEF4FE757E447
S1130350FC0160817181828193810E94530D181682
S11303600CF046C020E030E040E251E46D817E8133
S11303708F8198850E94570DDC01CB018E010F59A6
S11303801F4FBC01CD010E94DA0CDC01CB01F80146
S11303909183808324C0CE018D599F4F20E731E0A3
S11303A0FC0131832083CE018D599F4FFC01808154
S11303B091810197F1F79E012D593F4FF9019183E6
S11303C08083CE018F599F4F9E012F593F4FF901D2
S11303D02081318121503109FC0131832083CE01F8
S11303E08F599F4FFC0180819181892BA1F62CC0EC
S11303F08E010F591F4FCE01835A9F4FFC0160811C
S11304007181828193810E94DA0CDC01CB01F801B5
S113041091838083CE018B599F4F9E012F593F4F6B
S1130420F90120813181FC0131832083CE018B5974
S11304309F4FFC01808191810197F1F79E012B5917
S11304403F4FF9019183808388E290E028E230E015
S1130450F90120812B7FFC01208380E090E0A0E85B
S1130460BFE389879A87AB87BC878E010D5A1F4FDC
S113047026E636E646E655E469857A858B859C85CD
S11304800E94570DDC01CB01F80180839183A28384
S1130490B383CE018D5A9F4F20E030E040E85FE304
S11304A0FC0160817181828193810E94D60C882332
S11304B04CF4CE01895A9F4F21E030E0FC01318396
S11304C0208369C0CE018D5A9F4F20E03FEF4FE754
S11304D057E4FC0160817181828193810E94530DF4
S11304E018160CF046C020E030E040E251E4698583
S11304F07A858B859C850E94570DDC01CB018E018A
S1130500095A1F4FBC01CD010E94DA0CDC01CB015A
S1130510F8019183808324C0CE01875A9F4F20E73E
S113052031E0FC0131832083CE01875A9F4FFC01C7
S1130530808191810197F1F79E01275A3F4FF9017C
S113054091838083CE01895A9F4F9E01295A3F4F40
S1130550F9012081318121503109FC01318320834B
S1130560CE01895A9F4FFC0180819181892BA1F68C
S11305702CC08E01095A1F4FCE018D5A9F4FFC018A
S113058060817181828193810E94DA0CDC01CB014C
S1130590F80191838083CE01855A9F4F9E01295A89
S11305A03F4FF90120813181FC0131832083CE0149
S11305B0855A9F4FFC01808191810197F1F79E013B
S11305C0255A3F4FF9019183808388E290E028E225
S11305D030E0F90120812E7FFC01208388E290E045
S11305E028E230E0F90120812D7FFC01208388E29C
S11305F090E020E3FC01208388E290E028E230E0F0
S1130600F90120812460FC01208380E090E0A0EACD
S1130610B0E48D879E87AF87B88B8E01075B1F4F31
S113062026E636E646E655E46D857E858F8598890F
S11306300E94570DDC01CB01F80180839183A283D2
S1130640B383CE01875B9F4F20E030E040E85FE357
S1130650FC0160817181828193810E94D60C882380
S11306604CF4CE01835B9F4F21E030E0FC013183E9
S1130670208369C0CE01875B9F4F20E03FEF4FE7A7
S113068057E4FC0160817181828193810E94530D42
S113069018160CF046C020E030E040E251E46D85CD
S11306A07E858F8598890E94570DDC01CB018E01D0
S11306B0035B1F4FBC01CD010E94DA0CDC01CB01AE
S11306C0F8019183808324C0CE01815B9F4F20E792
S11306D031E0FC0131832083CE01815B9F4FFC011B
S11306E0808191810197F1F79E01215B3F4FF901D0
S11306F091838083CE01835B9F4F9E01235B3F4F99
S1130700F9012081318121503109FC013183208399
S1130710CE01835B9F4FFC0180819181892BA1F6DF
S11307202CC08E01035B1F4FCE01875B9F4FFC01E2
S113073060817181828193810E94DA0CDC01CB019A
S1130740F80191838083CE018F5A9F4F9E01235BD2
S11307503F4FF90120813181FC0131832083CE0197
S11307608F5A9F4FFC01808191810197F1F79E017F
S11307702F5A3F4FF9019183808388E290E028E269
S113078030E0F90120812B7FFC01208380E090E0A0
S1130790A0E8BFE3898B9A8BAB8BBC8B8E01015C89
S11307A01F4F26E636E646E655E469897A898B8941
S11307B09C890E94570DDC01CB01F8018083918351
S11307C0A283B383CE01CF9620E030E040E85FE31C
S11307D0FC0160817181828193810E94D60C8823FF
S11307E04CF4CE018D5B9F4F21E030E0FC0131835E
S11307F0208367C0CE01CF9620E03FEF4FE757E458
S1130800FC0160817181828193810E94530D1816CD
S11308100CF046C020E030E040E251E469897A8976
S11308208B899C890E94570DDC01CB018E010D5BE5
S11308301F4FBC01CD010E94DA0CDC01CB01F80191
S11308409183808324C0CE018B5B9F4F20E731E0EE
S1130850FC0131832083CE018B5B9F4FFC0180819F
S113086091810197F1F79E012B5B3F4FF901918331
S11308708083CE018D5B9F4F9E012D5B3F4FF9011D
S11308802081318121503109FC0131832083CE0143
S11308908D5B9F4FFC0180819181892BA1F62BC038
S11308A08E010D5B1F4FCE01CF96FC0160817181DB
S11308B0828193810E94DA0CDC01CB01F8019183DF
S11308C08083CE01895B9F4F9E012D5B3F4FF901D1
S11308D020813181FC0131832083CE01895B9F4FCC
S11308E0FC01808191810197F1F79E01295B3F4FC3
S11308F0F9019183808388E290E028E230E0F901F5
S113090020812E7FFC01208388E290E028E230E001
S1130910F90120812D7FFC01208388E290E020E30F
S1130920FC01208388E290E028E230E0F901208194
S11309302460FC01208380E090E0A0EAB0E48D8B89
S11309409E8BAF8BB88F26E636E646E655E46D8976
S11309507E898F89988D0E94570DDC01CB018DAB68
S11309609EABAFABB8AF20E030E040E85FE36DA9E9
S11309707EA98FA998AD0E94D60C88232CF481E01F
S113098090E09AAF89AF3DC020E03FEF4FE757E4D6
S11309906DA97EA98FA998AD0E94530D181644F530
S11309A020E030E040E251E46D897E898F89988DA2
S11309B00E94570DDC01CB01BC01CD01FBD7DC014A
S11309C0CB019AAF89AF0FC080E791E09CAF8BAFAA
S11309D08BAD9CAD0197F1F79CAF8BAF89AD9AAD10
S11309E001979AAF89AF89AD9AAD892B69F713C086
S11309F06DA97EA98FA998ADDDD7DC01CB019AAF93
S1130A0089AF89AD9AAD9EAF8DAF8DAD9EAD019787
S1130A10F1F79EAF8DAF88E290E028E230E0F90173
S1130A2020812B7FFC01208380E090E0A0E8BFE3DD
S1130A30898F9A8FAB8FBC8F26E636E646E655E45F
S1130A40698D7A8D8B8D9C8D0E94570DDC01CB01B5
S1130A508BA79CA7ADA7BEA720E030E040E85FE3EA
S1130A606BA57CA58DA59EA5A1D788232CF481E038
S1130A7090E098AB8FA73DC020E03FEF4FE757E4ED
S1130A806BA57CA58DA59EA50E94530D181644F553
S1130A9020E030E040E251E4698D7A8D8B8D9C8DAD
S1130AA00E94570DDC01CB01BC01CD0183D7DC01D1
S1130AB0CB0198AB8FA70FC080E791E09AAB89ABCD
S1130AC089A99AA90197F1F79AAB89AB8FA598A93F
S1130AD0019798AB8FA78FA598A9892B69F713C0A5
S1130AE06BA57CA58DA59EA565D7DC01CB0198AB34
S1130AF08FA78FA598A99CAB8BAB8BA99CA90197B9
S1130B00F1F79CAB8BAB88E290E028E230E0F9018E
S1130B1020812E7FFC01208388E290E028E230E0EF
S1130B20F90120812D7FFC01208388E290E020E2FE
S1130B30FC01208388E290E028E230E0F901208182
S1130B402460FC01208380E090E0A0EAB0E48D8F73
S1130B509E8FAF8FB8A326E636E646E655E46D8D44
S1130B607E8D8F8D98A1A3D7DC01CB0189A39AA395
S1130B70ABA3BCA320E030E040E85FE369A17AA125
S1130B808BA19CA113D788232CF481E090E09EA331
S1130B908DA33BC020E03FEF4FE757E469A17AA162
S1130BA08BA19CA180D718163CF520E030E040E2F0
S1130BB051E46D8D7E8D8F8D98A179D7DC01CB01A9
S1130BC0BC01CD01F7D6DC01CB019EA38DA30FC0E0
S1130BD080E791E098A78FA38FA198A50197F1F7DB
S1130BE098A78FA38DA19EA101979EA38DA38DA1EC
S1130BF09EA1892B69F713C069A17AA18BA19CA13D
S1130C00D9D6DC01CB019EA38DA38DA19EA19AA769
S1130C1089A789A59AA50197F1F79AA789A788E2D8
S1130C2090E028E230E0F90120812B7FFC01208351
S1130C300000C059DF4F0FB6F894DEBF0FBECDBF22
S1130C40DF91CF911F910F910895CF93DF93CDB78B
S1130C50DEB72E970FB6F894DEBF0FBECDBF80E08F
S1130C6090E0A0E8BFE389839A83AB83BC8326E644
S1130C7036E646E655E469817A818B819C8117D7F3
S1130C80DC01CB018D839E83AF83B88720E030E005
S1130C9040E85FE36D817E818F81988587D68823C4
S1130CA02CF481E090E09A8789873BC020E03FEFF5
S1130CB04FE757E46D817E818F819885F4D61816AD
S1130CC03CF520E030E040E251E469817A818B8197
S1130CD09C81EDD6DC01CB01BC01CD016BD6DC01DE
S1130CE0CB019A8789870FC080E791E09C878B8727
S1130CF08B859C850197F1F79C878B8789859A85DD
S1130D0001979A87898789859A85892B69F713C002
S1130D106D817E818F8198854DD6DC01CB019A87C8
S1130D20898789859A859E878D878D859E8501977C
S1130D30F1F79E878D8788E212D081E010D086E09B
S1130D400ED08EE00CD080E80AD000002E960FB6AC
S1130D50F894DEBF0FBECDBFDF91CF910895CF933E
S1130D60DF93CDB7DEB76E970FB6F894DEBF0FBE34
S1130D70CDBF8E8F8E8D89838981807F898388E220
S1130D8090E028E230E0F90120812F70FC012083FB
S1130D9088E290E028E230E0F90130812981232BB8
S1130DA0FC01208388E290E028E230E0F901208110
S1130DB02E7FFC01208388E290E028E230E0F901F4
S1130DC020812D7FFC01208388E290E028E230E03E
S1130DD0F90120812460FC01208380E090E0A0EAF6
S1130DE0B0E48A839B83AC83BD8326E636E646E67D
S1130DF055E46A817B818C819D8159D6DC01CB01CC
S1130E008C8B9D8BAE8BBF8B20E030E040E85FE3A2
S1130E106C897D898E899F89C9D588232CF481E0CA
S1130E2090E0998F888F3BC020E03FEF4FE757E475
S1130E306C897D898E899F8936D618163CF520E009
S1130E4030E040E251E46A817B818C819D812FD620
S1130E50DC01CB01BC01CD01ADD5DC01CB01998F07
S1130E60888F0FC080E791E09B8F8A8F8A8D9B8D3E
S1130E700197F1F79B8F8A8F888D998D0197998FB0
S1130E80888F888D998D892B69F713C06C897D892A
S1130E908E899F898FD5DC01CB01998F888F888DAE
S1130EA0998D9D8F8C8F8C8D9D8D0197F1F79D8FE2
S1130EB08C8F88E290E028E230E0F90120812B7FDA
S1130EC0FC0120838E8D8F708E8F8E8D8295807F16
S1130ED08E8F88E290E028E230E0F90120812F70C3
S1130EE0FC01208388E290E028E230E0F9013081BF
S1130EF02E8D232BFC01208388E290E028E230E051
S1130F00F90120812E7FFC01208388E290E028E211
S1130F1030E0F90120812D7FFC01208388E290E0FC
S1130F2028E230E0F90120812460FC01208380E084
S1130F3090E0A0EAB0E48E839F83A887B98726E671
S1130F4036E646E655E46E817F8188859985AFD57E
S1130F50DC01CB018A879B87AC87BD8720E030E02A
S1130F6040E85FE36A857B858C859D851FD5882352
S1130F702CF481E090E09F878E873BC020E03FEF18
S1130F804FE757E46A857B858C859D858CD518163B
S1130F903CF520E030E040E251E46E817F818885B9
S1130FA0998585D5DC01CB01BC01CD0103D5DC01DC
S1130FB0CB019F878E870FC080E791E0998B888B48
S1130FC0888999890197F1F7998B888B8E859F85FC
S1130FD001979F878E878E859F85892B69F713C01C
S1130FE06A857B858C859D85E5D4DC01CB019F8753
S1130FF08E878E859F859B8B8A8B8A899B89019797
S1131000F1F79B8B8A8B88E290E028E230E0F901CB
S113101020812B7FFC01208300006E960FB6F8948C
S1131020DEBF0FBECDBFDF91CF910895CF93DF9385
S1131030CDB7DEB76E970FB6F894DEBF0FBECDBF47
S11310408E8F8E8D89838981807F898388E290E069
S113105028E230E0F90120812F70FC01208388E22E
S113106090E028E230E0F90130812981232BFC0152
S1131070208388E290E028E230E0F90120812160B9
S1131080FC01208388E290E028E230E0F90120812D
S11310902D7FFC01208388E290E028E230E0F90112
S11310A020812460FC01208380E090E0A0EAB0E489
S11310B08A839B83AC83BD8326E636E646E655E405
S11310C06A817B818C819D81F2D4DC01CB018C8B84
S11310D09D8BAE8BBF8B20E030E040E85FE36C89F2
S11310E07D898E899F8962D488232CF481E090E0E5
S11310F0998F888F3BC020E03FEF4FE757E46C891E
S11311007D898E899F89CFD418163CF520E030E084
S113111040E251E46A817B818C819D81C8D4DC01E9
S1131120CB01BC01CD0146D4DC01CB01998F888F62
S11311300FC080E791E09B8F8A8F8A8D9B8D0197EA
S1131140F1F79B8F8A8F888D998D0197998F888F5E
S1131150888D998D892B69F713C06C897D898E8957
S11311609F8928D4DC01CB01998F888F888D998D34
S11311709D8F8C8F8C8D9D8D0197F1F79D8F8C8F1A
S113118088E290E028E230E0F90120812B7FFC0125
S113119020838E8D8F708E8F8E8D8295807F8E8F23
S11311A088E290E028E230E0F90120812F70FC0110
S11311B0208388E290E028E230E0F90130812E8D2E
S11311C0232BFC01208388E290E028E230E0F9013F
S11311D020812160FC01208388E290E028E230E055
S11311E0F90120812D7FFC01208388E290E028E230
S11311F030E0F90120812460FC01208380E090E04C
S1131200A0EAB0E48E839F83A887B98726E636E6F2
S113121046E655E46E817F818885998548D4DC0152
S1131220CB018A879B87AC87BD8720E030E040E80C
S11312305FE36A857B858C859D85B8D388232CF4F0
S113124081E090E09F878E873BC020E03FEF4FE72F
S113125057E46A857B858C859D8525D418163CF5D5
S113126020E030E040E251E46E817F8188859985F9
S11312701ED4DC01CB01BC01CD019CD3DC01CB012C
S11312809F878E870FC080E791E0998B888B888930
S113129099890197F1F7998B888B8E859F850197A2
S11312A09F878E878E859F85892B69F713C06A85F2
S11312B07B858C859D857ED3DC01CB019F878E87C2
S11312C08E859F859B8B8A8B8A899B890197F1F7F1
S11312D09B8B8A8B88E290E028E230E0F901208140
S11312E02B7FFC01208300006E960FB6F894DEBFBE
S11312F00FBECDBFDF91CF910895CF93DF93CDB7CC
S1131300DEB780E82CDD0000DF91CF910895CF9304
S1131310DF931F921F92CDB7DEB789836A838981D9
S1131320882F90E08230910581F0833091051CF480
S1131330019739F016C08330910559F0049769F08C
S113134010C08A8181580BDD0CC08A81815407DD6D
S113135008C08A818D5603DD04C08A818D52FFDC6A
S1131360000000000F900F90DF91CF910895CF936C
S1131370DF93CDB7DEB727970FB6F894DEBF0FBE65
S1131380CDBF8A836B835D834C833F832E83198215
S11313908A81882319F08B81882311F4AEDF03C07E
S11313A06B818A81B4DF8E819F81059719F08981D1
S11313B08130F1F48C819D81929582958F7089277B
S11313C09F7089279C01A7E4B3E0E1D296958795A5
S11313D09695879596958795C096909305028093E8
S11313E00402809104029091050220DE81E0898349
S11313F08E819F81049721F08981813009F03DC05D
S11314008C819D81969587959695879596958795D8
S11314109C01A5ECB0E2BBD2929582958F7089278E
S11314209F708927909307028093060240910602D9
S1131430509107029A01ADECBCECA9D29695879520
S11314409695879596958795880F991F9C01220FED
S1131450331F220F331F820F931F9A01281B390B4E
S1131460C901C096909312028093110280911102D7
S113147090911202DBDD81E089838E819F81039745
S113148019F089818130B9F58C819D819695879574
S1131490969587959C01ABE7B4E179D296958795AB
S11314A0909307028093060240910602509107022E
S11314B09A01ADECBCEC6BD2969587959695879581
S11314C096958795880F991F9C01220F331F220F31
S11314D0331F820F931F9A01281B390BC901C09631
S11314E090930E0280930D0280910D0290910E0252
S11314F09DDD81E089838E819F81029719F0898126
S11315008130B9F58C819D819C01ADECBCEC3FD25E
S113151096958795969587959695879590930702C6
S11315208093060240910602509107029A01ADECA5
S1131530BCEC2DD29695879596958795969587952B
S1131540880F991F9C01220F331F220F331F820F14
S1131550931F9A01281B390BC901C09690930C0262
S113156080930B0280910B0290910C025FDD81E06D
S113157089838E819F81019719F08981813019F5C2
S11315804C815D819A01ADECBCEC01D296958795B6
S11315909695879596958795880F991F9C01220F9C
S11315A0331F220F331F820F931F9A01281B390BFD
S11315B0C901C0969093100280930F0280910F028C
S11315C09091100233DD8E819F81069714F085E49B
S11315D02DDD000027960FB6F894DEBF0FBECDBFF9
S11315E0DF91CF910895CF93DF93CDB7DEB787E234
S11315F090E027E230E0F9012081276FFC0120838D
S113160088E290E028E230E0F90120812078FC01B2
S113161020830000DF91CF910895CF93DF93CDB75E
S1131620DEB780E390E0FC01108281E390E0FC01EE
S1131630108287E091E0FC01108288E091E0FC01D7
S113164010820000DF91CF910895CF93DF93CDB73F
S1131650DEB781E290E021E230E0F90120812F60E1
S1131660FC01208382E290E022E230E0F901208153
S1131670207FFC0120838AE091E02AE031E0F90137
S113168020812861FC0120838BE091E02BE031E094
S1131690F90120812861FC0120830000DF91CF91B2
S11316A00895CF93DF93CDB7DEB79DDFB6DFCDDFEF
S11316B00000DF91CF910895CF93DF93CDB7DEB7CC
S11316C081E291E0FC01108285E291E02FEFFC01C0
S11316D0208384E291E021E0FC01208389E291E00F
S11316E0FC01108288E291E02FEFFC0120838BE261
S11316F091E0FC0110828AE291E02FEFFC0120834B
S11317008DE291E0FC0110828CE291E02FEFFC016C
S1131710208380E291E029EAFC01208381E291E0C8
S11317202BE0FC0120830000DF91CF910895CF933B
S1131730DF93CDB7DEB78AE790E0FC0110828BE738
S113174090E0FC0110828CE790E020E2FC01208311
S113175080E590E020E8FC0120838AE790E026E819
S1131760FC0120830000DF91CF910895CF93DF9394
S11317701F921F92CDB7DEB78A838A81883028F002
S11317808BE790E028E0FC0120838A8187708A83BC
S11317908CE790E02A812062FC0120838AE790E0B4
S11317A02AE730E0F90120812064FC012083000055
S11317B08AE790E0FC018081882F90E0807199276E
S11317C0892BB1F389E790E0FC01808189838AE762
S11317D090E02AE730E0F90120812061FC012083B8
S11317E08BE790E0FC01108289810F900F90DF91CC
S11317F0CF910895CF93DF9300D0CDB7DEB789831F
S11318006A834B838B81B2DF809308028091080244
S1131810882F90E023E030E0AC016A818981A7DD64
S113182000000F900F900F90DF91CF910895CF9308
S1131830DF931F921F92CDB7DEB789836A8388E254
S113184091E02981FC0120838AE291E02A81FC0154
S1131850208300000F900F90DF91CF910895CF93D4
S1131860DF931F921F92CDB7DEB78A8319828A81D4
S11318708F708A8382E290E0FC0180818983898170
S1131880807F898399818A81892B898382E290E090
S11318902981FC01208300000F900F90DF91CF91EC
S11318A00895CF93DF93CDB7DEB786E0D8DF00008D
S11318B0DF91CF910895CF93DF93CDB7DEB7F8943E
S11318C0F0DE35DFF9DE78940000DF91CF910895E2
S11318D0CF93DF93CDB7DEB7EEDF0E948700B5D993
S11318E083E044DF8093010282E040DF80930202C0
S11318F081E03CDF809303021092000243E061E048
S113190081E078DF42E065E081E074DF41E069E096
S113191081E070DF80910202883238F481E08093A4
S11319200002BFDF66E986E982DF80910102893225
S113193058F080910002882339F481E080930002FA
S1131940B0DF62E382E873DF80910302893258F0EA
S113195080910002882339F481E080930002A1DFA2
S113196062E882E364DF80910202893208F4B8CF2E
S113197080910102893208F4B3CF80910302893245
S113198008F4AECF8EDF60E080E051DFA9CFA29FE4
S1131990B001B39FC001A39F700D811D1124911D3F
S11319A0B29F700D811D1124911D08952FD008F44C
S11319B081E0089557D088F09F5790F0B92F992768
S11319C0B751A0F0D1F0660F771F881F991F1AF046
S11319D0BA95C9F712C0B13081F05ED0B1E0089574
S11319E05BC0672F782F8827B85F39F0B93FCCF3F5
S11319F0869577956795B395D9F73EF4909580953C
S1131A00709561957F4F8F4F9F4F0895990F0008F0
S1131A10550FAA0BE0E8FEEF16161706E807F907BC
S1131A20C0F012161306E407F50798F0621B730B57
S1131A30840B950B39F40A2661F0232B242B252BD8
S1131A4021F408950A2609F4A140A6958FEF811D7B
S1131A50811D089557FD9058440F551F59F05F3F5D
S1131A6071F04795880F97FB991F61F09F3F79F0BC
S1131A7087950895121613061406551FF2CF46953E
S1131A80F1DF08C0161617061806991FF1CF8695C0
S1131A907105610508940895E894BB2766277727A4
S1131AA0CB0197F90895B2DF08F48FEF08950BD0B6
S1131AB078C069D028F06ED018F0952309F05AC088
S1131AC05FC01124EACFC6DFA0F3959FD1F3950F31
S1131AD050E0551F629FF001729FBB27F00DB11DAE
S1131AE0639FAA27F00DB11DAA1F649F6627B00D3E
S1131AF0A11D661F829F2227B00DA11D621F739F27
S1131B00B00DA11D621F839FA00D611D221F749F34
S1131B103327A00D611D231F849F600D211D822F7B
S1131B20762F6A2F11249F5750408AF0E1F08823C2
S1131B304AF0EE0FFF1FBB1F661F771F881F9150CF
S1131B405040A9F79E3F510570F014C0A6CF5F3FE7
S1131B50ECF3983EDCF3869577956795B795F79502
S1131B60E7959F5FC1F7FE2B880F911D969587958A
S1131B7097F9089597F99F6780E870E060E0089509
S1131B809FEF80EC089500240A9416161706180691
S1131B900906089500240A9412161306140605066D
S1131BA00895092E0394000C11F4882352F0BB0FFE
S1131BB040F4BF2B11F460FF04C06F5F7F4F8F4F61
S10B1BC09F4F0895F894FFCF34
S9030000FC
